:020000040800F2
:1000000000000220F12B0008392800083F280008D2
:10001000452800084B28000851280008000000006F
:100020000000000000000000000000005728000849
:1000300065280008000000007328000881280008D7
:10004000412C0008412C0008412C0008412C0008DC
:10005000412C0008412C0008412C0008412C0008CC
:10006000412C0008412C0008412C0008412C0008BC
:10007000412C0008412C0008412C0008412C0008AC
:10008000412C0008412C0008412C0008412C00089C
:10009000412C0008412C0008412C0008412C00088C
:1000A000412C0008412C0008412C0008412C00087C
:1000B000412C0008412C0008412C0008412C00086C
:1000C000412C0008412C0008412C0008412C00085C
:1000D000412C0008412C0008412C0008412C00084C
:1000E000412C0008412C0008412C0008412C00083C
:1000F000412C0008412C0008412C0008412C00082C
:10010000412C0008412C0008412C0008412C00081B
:10011000412C0008412C0008412C0008412C00080B
:10012000412C0008412C0008412C0008412C0008FB
:10013000412C0008412C0008412C0008412C0008EB
:10014000412C0008412C0008412C0008412C0008DB
:10015000412C0008412C0008412C0008412C0008CB
:10016000412C0008412C0008412C0008412C0008BB
:10017000412C0008412C0008412C00080000000020
:08018000412C0008412C00088D
:1001900010B5054C237833B9044B13B10448AFF3C1
:1001A00000800123237010BDE0010020000000004A
:1001B000FCA7000808B5034B1BB103490348AFF384
:1001C000008008BD00000000E4010020FCA700083A
:1001D00001F0FF01102A2BDB10F0070F08D010F8F8
:1001E000013B013A8B422DD010F0070F42B3F6D1FC
:1001F000F0B441EA012141EA014122F007047FF015
:1002000000070023F0E80256083C85EA010586EA6B
:10021000010685FA47F5A3FA87F586FA47F6A5FAA7
:1002200087F68EB9EED1F0BC01F0FF0102F00702B3
:1002300032B110F8013B013A83EA010313B1F8D15E
:100240000020704701387047002D06BF354603383F
:10025000073815F0010F07D1013015F4807F02BF78
:10026000013015F4C03F0130F0BC0138704700BFC9
:10027000034613F8012B002AFBD1181A01387047E6
:1002800081F0004102E000BF83F0004330B54FEA47
:1002900041044FEA430594EA050F08BF90EA020FB4
:1002A0001FBF54EA000C55EA020C7FEA645C7FEA47
:1002B000655C00F0E2804FEA5454D4EB5555B8BF6A
:1002C0006D420CDD2C4480EA020281EA030382EADB
:1002D000000083EA010180EA020281EA0303362D6D
:1002E00088BF30BD11F0004F4FEA01314FF4801C40
:1002F0004CEA113102D0404261EB410113F0004F52
:100300004FEA03334CEA133302D0524263EB430308
:1003100094EA050F00F0A780A4F10104D5F1200EA6
:100320000DDB02FA0EFC22FA05F2801841F1000101
:1003300003FA0EF2801843FA05F359410EE0A5F1D5
:1003400020050EF1200E012A03FA0EFC28BF4CF006
:10035000020C43FA05F3C01851EBE37101F00045BC
:1003600007D54FF0000EDCF1000C7EEB00006EEBC9
:100370000101B1F5801F1BD3B1F5001F0CD3490853
:100380005FEA30004FEA3C0C04F101044FEA4452AA
:1003900012F5800F80F09A80BCF1004F08BF5FEA31
:1003A000500C50F1000041EB045141EA050130BD11
:1003B0005FEA4C0C404141EB0101013C28BFB1F523
:1003C000801FE9D291F0000F04BF01460020B1FA6E
:1003D00081F308BF2033A3F10B03B3F120020CDA41
:1003E0000C3208DD02F1140CC2F10C0201FA0CF01F
:1003F00021FA02F10CE002F11402D8BFC2F1200C84
:1004000001FA02F120FA0CFCDCBF41EA0C01904039
:10041000E41AA2BF01EB0451294330BD6FEA040482
:100420001F3C1CDA0C340EDC04F11404C4F120026D
:1004300020FA04F001FA02F340EA030021FA04F37F
:1004400045EA030130BDC4F10C04C4F1200220FAD6
:1004500002F001FA04F340EA0300294630BD21FA14
:1004600004F0294630BD94F0000F83F4801306BFDA
:1004700081F480110134013D4EE77FEA645C18BFCE
:100480007FEA655C29D094EA050F08BF90EA020F65
:1004900005D054EA000C04BF1946104630BD91EA5D
:1004A000030F1EBF0021002030BD5FEA545C05D160
:1004B0004000494128BF41F0004130BD14F580049F
:1004C0003CBF01F5801130BD01F0004545F0FE4113
:1004D00041F470014FF0000030BD7FEA645C1ABF48
:1004E000194610467FEA655C1CBF0B46024650EA7F
:1004F000013406BF52EA033591EA030F41F40021AB
:1005000030BD00BF90F0000F04BF0021704730B530
:100510004FF4806404F132044FF000054FF0000105
:1005200050E700BF90F0000F04BF0021704730B5C6
:100530004FF4806404F1320410F0004548BF40429B
:100540004FF000013EE700BF42004FEAE2014FEAF0
:1005500031014FEA02701FBF12F07F4393F07F4FCB
:1005600081F06051704732F07F4208BF704793F0CE
:100570007F4F04BF41F40021704730B54FF46074E1
:1005800001F0004521F000411CE700BF50EA0102E4
:1005900008BF704730B54FF000050AE050EA01028D
:1005A00008BF704730B511F0004502D5404261EBFD
:1005B00041014FF4806404F132045FEA915C3FF43E
:1005C000D8AE4FF003025FEADC0C18BF03325FEADB
:1005D000DC0C18BF033202EBDC02C2F1200300FA8C
:1005E00003FC20FA02F001FA03FE40EA0E0021FAB1
:1005F00002F11444BDE600BF70B54FF0FF0C4CF49F
:10060000E06C1CEA11541DBF1CEA135594EA0C0F50
:1006100095EA0C0F00F0DEF82C4481EA030621EA8B
:100620004C5123EA4C5350EA013518BF52EA0335C6
:1006300041F4801143F4801338D0A0FB02CE4FF078
:100640000005E1FB02E506F00042E0FB03E54FF0A8
:100650000006E1FB03569CF0000F18BF4EF0010EA0
:10066000A4F1FF04B6F5007F64F5407404D25FEA9C
:100670004E0E6D4146EB060642EAC62141EA55514F
:100680004FEAC52040EA5E504FEACE2EB4F1FD0C91
:1006900088BFBCF5E06F1ED8BEF1004F08BF5FEA0F
:1006A000500E50F1000041EB045170BD06F00046C1
:1006B00046EA010140EA020081EA0301B4EB5C046E
:1006C000C2BFD4EB0C0541EA045170BD41F4801166
:1006D0004FF0000E013C00F3AB8014F1360FDEBF8B
:1006E000002001F0004170BDC4F10004203C35DA67
:1006F0000C341BDC04F11404C4F1200500FA05F3EA
:1007000020FA04F001FA05F240EA020001F000428A
:1007100021F0004110EBD37021FA04F642EB060100
:100720005EEA430E08BF20EAD37070BDC4F10C042A
:10073000C4F1200500FA04F320FA05F001FA04F2EE
:1007400040EA020001F0004110EBD37041F10001DA
:100750005EEA430E08BF20EAD37070BDC4F12005E5
:1007600000FA05F24EEA020E20FA04F301FA05F24D
:1007700043EA020321FA04F001F0004121FA04F2F5
:1007800020EA020000EBD3705EEA430E08BF20EAC5
:10079000D37070BD94F0000F0FD101F000464000FF
:1007A00041EB010111F4801F08BF013CF7D041EA81
:1007B000060195F0000F18BF704703F00046520085
:1007C00043EB030313F4801F08BF013DF7D043EA56
:1007D0000603704794EA0C0F0CEA135518BF95EA0C
:1007E0000C0F0CD050EA410618BF52EA4306D1D193
:1007F00081EA030101F000414FF0000070BD50EAB2
:10080000410606BF1046194652EA430619D094EA3B
:100810000C0F02D150EA013613D195EA0C0F05D125
:1008200052EA03361CBF104619460AD181EA030179
:1008300001F0004141F0FE4141F470014FF0000031
:1008400070BD41F0FE4141F4780170BD70B54FF0CC
:10085000FF0C4CF4E06C1CEA11541DBF1CEA13554C
:1008600094EA0C0F95EA0C0F00F0A7F8A4EB05042E
:1008700081EA030E52EA03354FEA013100F0888025
:100880004FEA03334FF0805545EA131343EA1263EE
:100890004FEA022245EA111545EA10654FEA0026A3
:1008A0000EF000419D4208BF964244F1FD0404F55C
:1008B000407402D25B084FEA3202B61A65EB0305B8
:1008C0005B084FEA32024FF480104FF4002CB6EB75
:1008D000020E75EB030E22BFB61A754640EA0C00F5
:1008E0005B084FEA3202B6EB020E75EB030E22BF35
:1008F000B61A754640EA5C005B084FEA3202B6EB76
:10090000020E75EB030E22BFB61A754640EA9C0034
:100910005B084FEA3202B6EB020E75EB030E22BF04
:10092000B61A754640EADC0055EA060E18D04FEAC2
:10093000051545EA16754FEA06164FEAC30343EA62
:1009400052734FEAC2025FEA1C1CC0D111F4801F2F
:100950000BD141EA00014FF000004FF0004CB6E728
:1009600011F4801F04BF01430020B4F1FD0C88BFC7
:10097000BCF5E06F3FF6AFAEB5EB030C04BFB6EBD2
:10098000020C5FEA500C50F1000041EB045170BDC5
:100990000EF0004E4EEA113114EB5C04C2BFD4EBF2
:1009A0000C0541EA045170BD41F480114FF0000E76
:1009B000013C90E645EA060E8DE60CEA135594EAF2
:1009C0000C0F08BF95EA0C0F3FF43BAF94EA0C0FF5
:1009D0000AD150EA01347FF434AF95EA0C0F7FF46A
:1009E00025AF104619462CE795EA0C0F06D152EABE
:1009F00003353FF4FDAE1046194622E750EA4106A2
:100A000018BF52EA43067FF4C5AE50EA41047FF4B2
:100A10000DAF52EA43057FF4EBAE12E74FF0FF3C17
:100A200006E000BF4FF0010C02E000BF4FF0010CE8
:100A30004DF804CD4FEA410C7FEA6C5C4FEA430C61
:100A400018BF7FEA6C5C1BD001B050EA410C0CBFB0
:100A500052EA430C91EA030F02BF90EA020F002012
:100A6000704710F1000F91EA030F58BF994208BF79
:100A700090422CBFD8176FEAE37040F00100704736
:100A80004FEA410C7FEA6C5C02D150EA013C07D18D
:100A90004FEA430C7FEA6C5CD6D152EA033CD3D0D8
:100AA0005DF8040B704700BF8446104662468C46D2
:100AB0001946634600E000BF01B5FFF7B7FF002805
:100AC00048BF10F1000F01BD4DF808EDFFF7F4FF2E
:100AD0000CBF012000205DF808FB00BF4DF808EDB9
:100AE000FFF7EAFF34BF012000205DF808FB00BFDC
:100AF0004DF808EDFFF7E0FF94BF012000205DF8FE
:100B000008FB00BF4DF808EDFFF7CEFF94BF0120B2
:100B100000205DF808FB00BF4DF808EDFFF7C4FFAB
:100B200034BF012000205DF808FB00BF4FEA410CF4
:100B30007FEA6C5C02D150EA013C0AD14FEA430CD7
:100B40007FEA6C5C02D152EA033C02D14FF0000014
:100B500070474FF0010070474FEA410212F5001252
:100B600015D211D56FF47873B3EB625212D94FEAF4
:100B7000C12343F0004343EA505311F0004F23FADE
:100B800002F018BF404270474FF00000704750EA33
:100B9000013005D111F0004008BF6FF000407047F0
:100BA0004FF00000704700BF53B94AB9002908BF91
:100BB00000281CBF4FF0FF314FF0FF3000F070B93C
:100BC000ADF1080C6DE904CE00F006F8DDF804E0A4
:100BD000DDE9022304B070472DE9F047089E0D4679
:100BE00004460F46002B4AD18A42944665D9B2FA90
:100BF00082F343B102FA03FCC3F120029F4020FAC2
:100C000002F217439C404FEA1C4E1FFA8CF5B7FBCB
:100C1000FEF1220C0EFB117742EA074201FB05F0C0
:100C200090420AD91CEB020201F1FF3780F01C81CF
:100C3000904240F2198102396244121AA4B2B2FB06
:100C4000FEF00EFB102244EA024400FB05F5A5422B
:100C50000AD91CEB040400F1FF3280F00781A542A1
:100C600040F204816444023840EA0140641B0021E0
:100C70001EB1DC400023C6E90043BDE8F0878B428B
:100C800008D9002E00F0ED800021C6E900050846D5
:100C9000BDE8F087B3FA83F1002949D1AB4202D312
:100CA000824200F2F880841A65EB030201201746A5
:100CB000002EE2D0C6E90047DFE702B9FFDEB2FA54
:100CC00082F3002B40F090808A1A4FEA1C471FFAEB
:100CD0008CFE0121B2FBF7F507FB1520220C42EA3E
:100CE00000420EFB05F0904208D91CEB020205F110
:100CF000FF3802D2904200F2CB804546121AA4B2CD
:100D0000B2FBF7F007FB102244EA02440EFB00FEA0
:100D1000A64508D91CEB040400F1FF3202D2A64517
:100D200000F2BB801046A4EB0E0440EA05409FE7AA
:100D3000C1F120078B4022FA07FC4CEA030C05FAAC
:100D400001F420FA07F3FD404FEA1C492343B5FBA9
:100D5000F9F81FFA8CFE09FB18551C0C44EA0544EF
:100D600008FB0EF5A54202FA01F200FA01F00BD9D8
:100D70001CEB040408F1FF3A80F08880A54240F2A1
:100D80008580A8F102086444641B9DB2B4FBF9F3AA
:100D900009FB134445EA044403FB0EFEA64508D9AB
:100DA0001CEB040403F1FF356CD2A6456AD9023B63
:100DB000644443EA0843A3FB0295A4EB0E04AC424F
:100DC000C846AE4656D353D056B1B0EB080264EBDA
:100DD0000E0404FA07F7CA40CC401743C6E9007472
:100DE00018460021BDE8F087C3F1200102FA03FC98
:100DF00020FA01F225FA01F19D402A434FEA1C47EF
:100E00001FFA8CFEB1FBF7F007FB1015110C41EA3D
:100E1000054100FB0EF58D4204FA03F408D91CEBE2
:100E2000010100F1FF382FD28D422DD902386144E3
:100E3000491B92B2B1FBF7F507FB151142EA0142DB
:100E400005FB0EF1914208D91CEB020205F1FF38B7
:100E500016D2914214D9023D6244521A45EA004129
:100E600038E73146304608E73946E6E61046FBE605
:100E70004845A9D2B9EB020865EB0C0E013BA3E78C
:100E80004546EAE72B4694E74046D1E7D0467BE764
:100E9000023D624432E708460AE76444023842E70A
:100EA000704700BF80B483B000AF78600B467B8092
:100EB00013463B807B6844F642521A803B887A880E
:100EC00003FB02F213465B00134436331A467B6879
:100ED0005A607B6800221A817B6800225A817B68F5
:100EE0003622DA607B6828221A617A887B685A6128
:100EF0003A887B689A617B6801229A837B68182212
:100F0000DA837B6800221A623B887A8803FB02F24C
:100F100013465B0013441A467B685A627B680022C2
:100F20009A627B680022DA627B6800221A637B681F
:100F300000225A6300BF0C37BD465DF8047B704742
:100F400090B5ADF6246D00AF024607F56263A3F6D7
:100F50001A631A80002387F81F3E012003F058FB14
:100F600004F03CFB03461C4604F02CFB03461A46E7
:100F700007F6E45321461846FFF794FF00BF07F633
:100F80002467BD4690BD0000B0B5B4B002AF1223D7
:100F9000A7F8C4301F2003F0DBFF0023A7F8A83018
:100FA0004FF6FF73A7F8AA301F23A7F8AC30002331
:100FB000A7F8AE300023A7F8A03049F69913A7F898
:100FC000A4300023A7F8A2300023A7F8A6300523F9
:100FD000A7F8C2300323A7F8C03007F1A803B7F879
:100FE000C010B7F8C200C54A04F000F8B7F8C02036
:100FF000B7F8C4301344A7F8C030C14B1B68C7F81A
:10100000BC30C04B1B68C7F8B830BF4B1B68C7F873
:10101000B43007F1A803B7F8C010B7F8C200BB4A54
:1010200003F0E4FFB7F8C020B7F8C4301344A7F8C2
:10103000C03007F12000D7F8BC300093D7F8B830A3
:10104000D7F8B420B24907F07DFA07F1A80307F1F9
:101050002002B7F8C010B7F8C20003F0C7FFB7F816
:10106000C020B7F8C4301344A7F8C03007F12003FC
:10107000A84A1C4613460FCB07C4238007F1200360
:101080001846FFF7F5F8024607F120031344184607
:1010900004F0F2FA07F120031846FFF7E9F80246D8
:1010A00007F120039C1804F099FA03461D4604F04A
:1010B00089FA03462A469849204607F043FA07F181
:1010C000A80307F12002B7F8C010B7F8C20003F078
:1010D0008DFFB7F8C020B7F8C4301344A7F8C0306C
:1010E00002F0CEFC0346002B0FD107F120038B4901
:1010F000184607F027FA07F1A80307F12002B7F80E
:10110000C010B7F8C20003F071FFB7F8C020B7F8FD
:10111000C4301344A7F8C030A02002F0ABFE034651
:10112000002B11D107F12003A0227D49184607F0BA
:1011300009FA07F1A80307F12002B7F8C010B7F8C1
:10114000C20003F053FF18E007F12003A022754905
:10115000184607F0F7F94FF47843A7F8AA3007F1DB
:10116000A80307F12002B7F8C010B7F8C20003F0D7
:101170003DFF4FF6FF73A7F8AA30B7F8C020B7F8C5
:10118000C4301344A7F8C030012387F8C73005F0F6
:10119000C9FC97F8C730002B1BD0002387F8C73055
:1011A00007F1A0033B61604B1B88403B9BB2FB8077
:1011B0005E4B1B88243B9BB23B8120237B813C23DD
:1011C000BB8100233B765A4B7B613B1D184604F0E4
:1011D000D3FA07F11C0207F11E031146184604F06A
:1011E00033FD034687F8B33097F8B330002B00F097
:1011F000A28097F8B330012B02D0032B32D09AE0B3
:10120000B7F91E3098B2B7F91C3099B2464B1B881B
:10121000403B9AB2454B1B88243B9BB23C24019433
:101220002024009404F058FD0346002B00F0828037
:1012300007F1A0033B613C4B1B88403B9BB2FB800A
:101240003A4B1B88243B9BB23B8120237B813C2370
:10125000BB8101233B76364B7B613B1D184604F076
:101260008BFA67E0B7F91E3098B2B7F91C3099B223
:101270002D4B1B88403B9AB22C4B1B88243B9BB2C6
:101280003C2401942024009404F026FD0346002B06
:1012900019D007F1A0033B61234B1B88403B9BB255
:1012A000FB80224B1B88243B9BB23B8120237B810C
:1012B0003C23BB8101233B761D4B7B613B1D1846C4
:1012C00004F05AFA48E007F1A0033B61164B1B8873
:1012D000403B9BB2FB80154B1B88243B9BB23B8160
:1012E00020237B813C23BB8100233B76104B7B6119
:1012F0003B1D184604F040FA1DE000BF18A8000886
:10130000107AFF1F147AFF1F187AFF1F24A8000805
:1013100044A800085CA800086CA8000878A8000889
:10132000A4A80008BCA800080C0000200A000020A7
:10133000D4A8000800BF03F0B5F8034687F8B23020
:1013400097F8B230002B3FF422AF97F8B230162B4B
:1013500001D000BF1BE700BFC837BD46B0BD00BF0E
:1013600080B582B000AF05F0F7FB00F031F805F072
:10137000C1FB00F085FA03F0E9FC04F013FC4FF622
:10138000E07003F0E5FD114B1B79184603F0F4FD06
:101390000023FB80FB88132B06D0132B13DC002BC0
:1013A00007D0012B0AD00EE004F0DCFE0023FB8006
:1013B0000AE000F07DF80346FB8005E0FFF7E4FD5E
:1013C0000023FB8000E000BFE4E700BF0002002034
:1013D00080B594B000AF07F12003302200211846F9
:1013E00007F0A8F907F10C0300221A605A609A600E
:1013F000DA601A610023BB60284B1B6C274A43F05C
:1014000080531364254B1B6C03F08053BB60BB6897
:1014100000237B60224B1B68214A43F48043136006
:101420001F4B1B6803F480437B607B6801233B6296
:101430004FF480337B620223BB634FF48003FB6372
:1014400019233B644FF4A8737B640223BB64072316
:10145000FB6407F12003184605F0F4FE0346002B59
:1014600001D000F01FF80F23FB6002233B61002333
:101470007B614FF4A053BB614FF48053FB6107F1D4
:101480000C030521184606F055F90346002B01D040
:1014900000F008F800BF5037BD4680BD003802405C
:1014A0000070004080B400AF72B600BFFEE70000DD
:1014B000F0B58BB002AF00F089F900233B82A24B5C
:1014C0001B88B3F5F07F06D1A04B1B88A04ADB0038
:1014D0001344DB8805E09D4B1B889E4ADB001344C8
:1014E000DB887B8249F69913BB820023FB820123B0
:1014F0003B81954B1B88B3F5F07F06D1934B1B883E
:10150000934ADB001344DB8805E0904B1B88914A2B
:10151000DB001344DB887B8149F69913BB810123EF
:10152000FB8107F110038C4A0321052003F05EFDC7
:101530008A4B1B880D3B99B207F10803884A0520A6
:1015400003F054FD0123FB7705F0ECFAFB7F002B41
:1015500014D00023FB770023BB830CE0BB8B5B0123
:10156000804A134407F108010022184603F07CFE6C
:10157000BB8B0133BB83BB8B112BEFD93A1DBB1D3A
:101580001146184604F060FB0346FB76FB7E002BF9
:1015900000F09280FB7E032B43D0032B00F3898065
:1015A000012B03D0022B00F0868082E00023BB8356
:1015B00033E0B7F9063098B2B7F9043099B2BB8B73
:1015C000684A5B01134402331C88BB8B654A5B018C
:1015D000134404331D88BB8B624A5B0113440633FA
:1015E0001B88BA8B5F4E5201324408321288019236
:1015F00000932B46224604F06FFB0346002B09D0D4
:10160000BB8B5B01574A134407F1080101221846BE
:1016100003F02AFEBB8B0133BB83BB8B112BC8D9D4
:101620004AE00023BB832DE0B7F9063098B2B7F942
:10163000043099B2BB8B4B4A5B01134402331C88C4
:10164000BB8B484A5B01134404331D88BB8B454A5E
:101650005B01134406331B88BA8B424E520132445D
:1016600008321288019200932B46224604F034FB84
:101670000346002B03D0BB8B3B4AD35C98E0BB8B6B
:101680000133BB83BB8B112BCED90023BB830CE072
:10169000BB8B5B01334A134407F108010022184653
:1016A00003F0E2FDBB8B0133BB83BB8B112BEFD966
:1016B00002E000BF00E000BF02F0B6FE02F0F2FE62
:1016C0000346BB76BB7E002B3FF43EAFBB7E012BB7
:1016D00003D0072B6AD113236AE01C4B1B8801330C
:1016E0009AB21A4B1A80194B1B88062B02D9174B3A
:1016F00000221A8000F06AF800233B82124B1B88FC
:10170000B3F5F07F06D1114B1B88114ADB0013445F
:10171000DB8805E00D4B1B880E4ADB001344DB8899
:101720007B8249F69913BB820023FB8201233B8114
:10173000054B1B88B3F5F07F18D1044B1B88044A76
:10174000DB001344DB8817E00C000020FC010020C4
:10175000F4BC02082CBD0208DCA800080A00002026
:10176000ECA80008A0BA0208E0BC0208124B1B88D3
:10177000124ADB001344DB887B8149F69913BB8155
:101780000123FB8107F110030D4A0321052003F01B
:101790002DFC0C4B1B880D3B99B207F108030A4A3C
:1017A000052003F023FC0123FB7700E000BFCBE61C
:1017B00018462437BD46F0BDFC0100202CBD0208B0
:1017C000DCA800080A000020ECA8000880B582B060
:1017D00002AF264B1B88B3F5F07F22D1244B1B8828
:1017E0001A46244B53F83230002B09D1204B1B886A
:1017F000204ADB0013449B88184603F0A9FB32E023
:101800001D4B1A88194B1988194B1B881846194B00
:1018100053F8303000930B460021002003F0C4FB46
:1018200021E0134B1B881A46144B53F83230002B1F
:1018300009D10F4B1B88114ADB0013449B881846C3
:1018400003F086FB0FE00C4B1A88084B1988084BF5
:101850001B881846094B53F8303000930B46002183
:10186000002003F0A1FB00BFBD4680BD0C0000209E
:10187000FC010020F4BC02080A0000202CBD020874
:1018800080B500AF38220021414801F057FF404B9E
:101890001B68B3F5817F78D03D4B4FF481721A609D
:1018A0003B4BC8221A713A4BC0221A76384BA822F9
:1018B0005A76374B01229A76354B0B22DA76344B27
:1018C000FF221A77324BFF225A77314BFF229A7749
:1018D0002F4B0022DA772E4BC02283F820202C4B8E
:1018E000A82283F821202A4B012283F82220284BAA
:1018F000012283F82320264BC02283F82420244B86
:10190000A82283F82520224B012283F82620204B91
:101910000C2283F827201E4BFF2283F828201C4B23
:10192000FF2283F829201A4BFF2283F82A20184B24
:10193000002283F82B20164BC02283F82C20144B56
:10194000A82283F82D20124B012283F82E20104B61
:10195000012283F82F200E4B002283F830200C4BFD
:10196000002283F831200A4B002283F83220084BF2
:10197000002283F83320064B242283F83420044BC2
:10198000012283F8352000F005F800BF80BD00BFBC
:101990000002002080B500AF38220021024801F08B
:1019A0002CFF00BF80BD00BF0002002080B483B0C8
:1019B00000AF00237B60104B5B6C0F4A43F4804305
:1019C00053640D4B5B6C03F480437B607B680023A6
:1019D0003B60094B1B6C084A43F080531364064B71
:1019E0001B6C03F080533B603B6800BF0C37BD4667
:1019F0005DF8047B704700BF0038024080B582B0BC
:101A000000AF78607B68002B01D101237BE07B680D
:101A10005B6A002B08D17B685B68B3F5827F09D0D5
:101A20007B680022DA6105E07B6800221A617B682E
:101A300000225A617B6800229A627B6893F85130D9
:101A4000DBB2002B06D17B68002283F85020786837
:101A500000F05DF87B68022283F851207B681B68E8
:101A60001A687B681B6822F040021A607B685B681A
:101A700003F482727B689B6803F404431A437B6817
:101A8000DB6803F400631A437B681B6903F00203FD
:101A90001A437B685B6903F001031A437B689B6907
:101AA00003F400731A437B68DB6903F038031A43BD
:101AB0007B681B6A03F0800342EA03017B689B6A30
:101AC00003F400527B681B680A431A607B689B69B9
:101AD0001B0C03F004017B685B6A03F010027B6857
:101AE0001B680A435A607B681B68DA697B681B685D
:101AF00022F40062DA617B6800225A657B68012269
:101B000083F85120002318460837BD4680BD80B4B5
:101B100083B000AF786000BF0C37BD465DF8047B32
:101B2000704780B58CB000AFF860B9607A607B8098
:101B30000123FB62002387F82B30FB6893F85030B9
:101B4000012B01D102238AE1FB68012283F8502096
:101B500005F068F87862FB6893F8513087F8233015
:101B6000FB685B68FB617B887B8397F82330012BE4
:101B70000FD0FB69B3F5827F07D1FB689B68002B10
:101B800003D197F82330042B03D0022387F82B309E
:101B90005BE1BB68002B05D07B68002B02D07B8803
:101BA000002B03D1012387F82B304EE1FB6893F81B
:101BB0005130DBB2042B03D0FB68052283F851209F
:101BC000FB6800225A65FB687A689A63FB687A882A
:101BD000DA87FB687A889A87FB68BA681A63FB68B9
:101BE0007A88DA86FB687A889A86FB6800221A640B
:101BF000FB6800225A64FB681B681B6803F0400303
:101C0000402B07D0FB681B681A68FB681B6842F012
:101C100040021A60FB68DB68B3F5006F78D1FB689F
:101C20005B68002B02D07B8B012B66D1FB681B6BA2
:101C30001A88FB681B68DA60FB681B6B9A1CFB68E0
:101C40001A63FB68DB8E9BB2013B9AB2FB68DA86B3
:101C500053E0FB681B689B6803F00203022B1BD157
:101C6000FB68DB8E9BB2002B16D0FB6A012B13D1D5
:101C7000FB681B6B1A88FB681B68DA60FB681B6BD0
:101C80009A1CFB681A63FB68DB8E9BB2013B9AB21D
:101C9000FB68DA860023FB62FB681B689B6803F025
:101CA0000103012B19D1FB68DB8F9BB2002B14D0F1
:101CB000FB681B68DA68FB689B6B92B21A80FB6852
:101CC0009B6B9A1CFB689A63FB68DB8F9BB2013BA2
:101CD0009AB2FB68DA870123FB6204F0A3FF024695
:101CE0007B6AD31ABA6B9A4207D8BB6BB3F1FF3F3A
:101CF00003D0032387F82B30A7E0FB68DB8E9BB271
:101D0000002BA6D1FB68DB8F9BB2002BA1D17CE01E
:101D1000FB685B68002B02D07B8B012B6BD1FB68CF
:101D20001A6BFB681B680C3312781A70FB681B6B0C
:101D30005A1CFB681A63FB68DB8E9BB2013B9AB2AC
:101D4000FB68DA8657E0FB681B689B6803F00203B8
:101D5000022B1CD1FB68DB8E9BB2002B17D0FB6AD9
:101D6000012B14D1FB681A6BFB681B680C331278CB
:101D70001A70FB681B6B5A1CFB681A63FB68DB8ECE
:101D80009BB2013B9AB2FB68DA860023FB62FB68D8
:101D90001B689B6803F00103012B19D1FB68DB8FE3
:101DA0009BB2002B14D0FB681B68DA68FB689B6B46
:101DB000D2B21A70FB689B6B5A1CFB689A63FB6873
:101DC000DB8F9BB2013B9AB2FB68DA870123FB628F
:101DD00004F028FF02467B6AD31ABA6B9A4203D8F2
:101DE000BB6BB3F1FF3F02D1BB6B002B03D10323CD
:101DF00087F82B3029E0FB68DB8E9BB2002BA2D149
:101E0000FB68DB8F9BB2002B9DD17A6AB96BF868B7
:101E100000F0B2F80346002B06D0012387F82B30E0
:101E2000FB6820225A6510E0FB689B68002B0BD1F1
:101E300000237B61FB681B68DB687B61FB681B68B8
:101E40009B687B617B6900E000BFFB68012283F82F
:101E50005120FB68002283F8502097F82B30184659
:101E60003037BD4680BD000080B588B000AFF86057
:101E7000B9603B601346FB7104F0D4FE0246BB6AB6
:101E80009B1A3A681344FB6104F0CCFEB861394BED
:101E90001B685B011B0DFA6902FB03F37B6154E0D5
:101EA0003B68B3F1FF3F50D004F0BCFE0246BB6973
:101EB000D31AFA699A4202D9FB69002B3DD1FB681B
:101EC0001B685A68FB681B6822F0E0025A60FB68D6
:101ED0005B68B3F5827F11D1FB689B68B3F5004F57
:101EE00004D0FB689B68B3F5806F07D1FB681B6863
:101EF0001A68FB681B6822F040021A60FB689B6A44
:101F0000B3F5005F0FD1FB681B681A68FB681B689C
:101F100022F400521A60FB681B681A68FB681B6891
:101F200042F400521A60FB68012283F85120FB68DA
:101F3000002283F85020032317E07B69002B01D196
:101F40000023FB617B69013B7B61FB681B689A682E
:101F5000BB681340BA689A420CBF01230023DBB26E
:101F60001A46FB799A429BD1002318462037BD467A
:101F700080BD00BF0000002080B588B002AFF860CF
:101F8000B9607A601B4B1B681B4AA2FB03235B0DE5
:101F90004FF47A7202FB03F37B61FB685B68B3F575
:101FA000827F12D17B680093BB6800228021F86891
:101FB000FFF75AFF0346002B16D0FB685B6D43F01A
:101FC0002002FB685A6503230FE07B69002B0AD0CF
:101FD0007B69013B7B61FB681B689B6803F08003A6
:101FE000802BF2D000E000BF002318461837BD4612
:101FF00080BD00BF00000020819F5E1680B584B0C8
:1020000000AFF860B9607A60FB68002B01D1012352
:1020100038E0FB6893F84930DBB2002B06D1FB684F
:10202000002283F84820F86800F030F8FB681A684E
:10203000FB6808331946104600F02AFCFB68186854
:10204000FB689B681A46B96800F08CFCFB6858680E
:10205000FB689A68FB681B6B796800F0B9FCFB6849
:102060001B68FA68926853F82210FB681B68FA68CC
:10207000926841F0010143F82210FB68012283F8C5
:102080004920002318461037BD4680BD80B483B078
:1020900000AF786000BF0C37BD465DF8047B704729
:1020A00080B582B000AF78607B68002B01D101233E
:1020B0003FE07B6893F83D30DBB2002B06D17B68B4
:1020C000002283F83C20786800F037F87B682422EF
:1020D00083F83D207B681B68DA687B681B6822F404
:1020E0000052DA60786800F033F97B681B681A697F
:1020F0007B681B6822F490421A617B681B685A69EE
:102100007B681B6822F02A025A617B681B68DA68C8
:102110007B681B6842F40052DA607B6800221A6414
:102120007B68202283F83D207B68202283F83E20B4
:10213000002318460837BD4680BD80B483B000AF89
:10214000786000BF0C37BD465DF8047B704780B5F2
:102150008AB002AFF860B9603B601346FB80002391
:102160007B61FB6893F83D30DBB2202B7CD1BB68F0
:10217000002B02D0FB88002B01D1012375E0FB6806
:1021800093F83C30012B01D102236EE0FB68012261
:1021900083F83C20FB6800221A64FB68212283F844
:1021A0003D2004F03FFD7861FB68FA889A84FB6863
:1021B000FA88DA84FB689B68B3F5805F08D1FB6816
:1021C0001B69002B04D10023FB61BB68BB6103E0EA
:1021D000BB68FB610023BB61FB68002283F83C20E5
:1021E0002AE03B6800937B6900228021F86800F0B8
:1021F00040F80346002B01D0032336E0FB69002B97
:102200000BD1BB691B881A46FB681B68C2F3080226
:102210005A60BB690233BB6107E0FB691A78FB684F
:102220001B685A60FB690133FB61FB68DB8C9BB266
:10223000013B9AB2FB68DA84FB68DB8C9BB2002B13
:10224000CFD13B6800937B6900224021F86800F001
:1022500010F80346002B01D0032306E0FB68202280
:1022600083F83D20002300E0022318462037BD46B6
:1022700080BD80B590B000AFF860B9603B60134698
:10228000FB7150E0BB6CB3F1FF3F4CD0BB6C002B3B
:1022900007D004F0C7FC02463B68D31ABA6C9A42D6
:1022A00041D2FB681B680C33BB62BB6A53E8003F3A
:1022B0007B627B6A23F4D073FB63FB681B680C337F
:1022C000FA6B7A633B63396B7A6B41E80023FB62FC
:1022D000FB6A002BE5D1FB681B6814337B617B69CB
:1022E00053E8003F3B613B6923F00103BB63FB689C
:1022F0001B681433BA6B3A62FB61F9693A6A41E8C8
:102300000023BB61BB69002BE5D1FB68202283F869
:102310003D20FB68202283F83E20FB68002283F8E2
:102320003C2003230FE0FB681B681A68BB6813405E
:10233000BA689A420CBF01230023DBB21A46FB792C
:102340009A429FD0002318464037BD4680BD00000A
:102350002DE9B04FC0B000AFC7F8F400D7F8F430A3
:102360001B681B6923F44050D7F8F430D968D7F8BC
:10237000F4301A6840EA01031361D7F8F4309A6820
:10238000D7F8F4301B691A43D7F8F4305B691A4365
:10239000D7F8F430DB691343C7F8F830D7F8F430D6
:1023A0001B68DB6823F4164121F00C01D7F8F430E8
:1023B0001A68D7F8F8300B43D360D7F8F4301B68AD
:1023C0005B6923F44070D7F8F4309969D7F8F4309A
:1023D0001A6840EA01035361D7F8F4301A688F4B4A
:1023E0009A4205D0D7F8F4301A688D4B9A4204D13E
:1023F00005F06CFBC7F8FC0003E005F053FBC7F8E1
:10240000FC00D7F8F430DB69B3F5004F40F00C81E5
:10241000D7F8FC300022C7F8E830C7F8EC20D7E93D
:102420003A4522462B469118B9655B41FB65D7E9D1
:102430001623214612EB0108294643EB01094FF010
:1024400000024FF000034FEAC90343EA58734FEA12
:10245000C80290469946234618EB0303C7F8E030BC
:102460002B4649EB0303C7F8E430D7F8F4305B6838
:102470000022C7F8D830C7F8DC20D7E936120B465F
:10248000DB183B65134642EB03037B65D7E9142356
:10249000D7E93801FEF788FB02460B46614BA3FBE8
:1024A00002235B091C01D7F8FC300022C7F8D030AA
:1024B000C7F8D420D7E9348942464B469118B9640D
:1024C0005B41FB64D7E91223414612EB010A4946FE
:1024D00043EB010B4FF000024FF000034FEACB0338
:1024E00043EA5A734FEACA0292469B4643461AEBA6
:1024F0000303C7F8C8304B464BEB0303C7F8CC3097
:10250000D7F8F4305B680022C7F8C030C7F8C420A1
:10251000D7E930120B46DB183B64134642EB03034A
:102520007B64D7E91023D7E93201FEF73DFB024671
:102530000B4611463B4BA3FB01235B09642202FBC4
:1025400003F3CB1ADB0003F13202364BA3FB022369
:102550005B095B0003F4F8731C44D7F8FC300022DD
:10256000C7F8B830C7F8BC20D7E92E8942464B4699
:102570009118B9635B41FB63D7E90E2341465118BB
:10258000396349464B417B634FF000024FF0000333
:10259000D7E90CAB5946CB00514643EA517351463B
:1025A000CA0010461946034642469B18C7F8B03089
:1025B0004B460A4642EB0303C7F8B430D7F8F43071
:1025C0005B680022C7F8A830C7F8AC20D7E92A1208
:1025D0000B46DB18BB62134642EB0303FB62D7E9F1
:1025E0000A23D7E92C01FEF7DFFA02460B460D4B12
:1025F000A3FB02135B09642101FB03F3D31ADB0085
:102600003233084AA2FB03235B0903F00702D7F821
:10261000F4301B6822449A6006E100BF00100140BC
:10262000001401401F85EB51D7F8FC300022C7F899
:10263000A030C7F8A420D7E9288942464B46911814
:1026400039625B417B62D7E9082341465418494609
:1026500043EB01054FF000024FF00003EB0043EAAB
:102660005473E20014461D464346E318C7F89830F9
:102670004B4645EB0303C7F89C30D7F8F4305B6852
:102680000022C7F89030C7F894204FF000024FF0B6
:102690000003D7E9244529468B00214643EA91737C
:1026A00021468A00D7E92601FEF77EFA02460B464C
:1026B000604BA3FB02235B091C01D7F8FC3000220E
:1026C000C7F88830C7F88C20D7E9228942464B46A4
:1026D0009118B9615B41FB61D7E906234146511866
:1026E000396149464B417B614FF000024FF00003D6
:1026F000D7E904AB5946CB00514643EA51735146E2
:10270000CA0010461946034642469B18C7F8803057
:102710004B460A4642EB0303C7F88430D7F8F4303F
:102720005B680022BB67FA674FF000024FF00003BE
:10273000D7E91E8949468B00414643EA91734146D9
:102740008A00D7E92001FEF72FFA02460B46114610
:10275000384BA3FB01235B09642202FB03F3CB1A72
:102760001B013233334AA2FB03235B0903F0F0035E
:102770001C44D7F8FC3000223B677A67D7E91C89F4
:1027800042464B469118B9605B41FB60D7E9022392
:1027900041465118396049464B417B604FF0000279
:1027A0004FF00003D7E900AB5946CB00514643EA4E
:1027B00051735146CA0010461946034642469B18BB
:1027C000BB664B460A4642EB0303FB66D7F8F43080
:1027D0005B6800223B667A664FF000024FF0000310
:1027E000D7E9188949468B00414643EA917341462F
:1027F0008A00D7E91A01FEF7D7F902460B460D4BBE
:10280000A3FB02135B09642101FB03F3D31A1B0131
:102810003233084AA2FB03235B0903F00F02D7F807
:10282000F4301B6822449A6000BF07F58077BD46EC
:10283000BDE8B08F1F85EB5180B400AFFEE780B4D8
:1028400000AFFEE780B400AFFEE780B400AFFEE764
:1028500080B400AFFEE780B400AF00BFBD465DF8B6
:10286000047B704780B400AF00BFBD465DF8047BB9
:10287000704780B400AF00BFBD465DF8047B704771
:1028800080B500AF04F0BAF903F0EAF800BF80BDEC
:1028900080B487B000AF786039603B681A687B68A5
:1028A00053F822303A68126823F001017B6843F83C
:1028B00022103B689B68082B02D140237B6101E01A
:1028C00000237B613B685A687B691A433B689B68BD
:1028D0001A433B68DB681A433B681B691A433B6831
:1028E0005B691A433B68DB691A433B681B6A1A43FE
:1028F0003B685B6A1A433B689B6A1A433B68DB6A26
:102900001A433B681B6B13433B613B689B693A6905
:1029100013433B613B68DB6B3A6913433B61104BEC
:10292000FB60FB6843F48063FB60FB6843F4E023D7
:10293000FB603B681A687B6853F82220FB68DB4326
:1029400002EA03013B681A683B6919437B6843F854
:102950002210002318461C37BD465DF8047B7047E3
:102960007FFB080080B485B000AFF860B9607A6082
:102970007B685A1CFB6853F8223003F04041BB6867
:102980001A68BB685B681B011A43BB689B681B0223
:102990001A43BB68DB681B041A43BB681B69013B15
:1029A0001B051A43BB685B69023B1B061A43BB68E5
:1029B0009B6913437A6801321943FB6843F822107C
:1029C000002318461437BD465DF8047B70470000AD
:1029D00080B485B000AFF860B9607A603B603B6856
:1029E000B3F5804F1DD1FB687A6853F82220134B52
:1029F0001340BA681168BA68526812011143BA6884
:102A0000926812021143BA6892691143BA68D26897
:102A100012040A4343EA0201FB687A6843F8221071
:102A200005E0FB687A686FF0704143F822100023DC
:102A300018461437BD465DF8047B70470000F0CFA0
:102A400080B400AF01231846BD465DF8047B704793
:102A500080B582B000AF7860396005F0BDFE0346F6
:102A600016221A604FF0FF3318460837BD4680BD66
:102A700080B582B000AF78604FF0FF317868FFF723
:102A8000E7FFFEE780B586B000AFF860B9607A6016
:102A900000237B610AE0AFF300800146BB685A1C4B
:102AA000BA60CAB21A707B6901337B617A697B684C
:102AB0009A42F0DB7B6818461837BD4680BD80B56A
:102AC00086B000AFF860B9607A6000237B6109E0EE
:102AD000BB685A1CBA601B781846AFF300807B694C
:102AE00001337B617A697B689A42F1DB7B68184627
:102AF0001837BD4680BD80B483B000AF78604FF01A
:102B0000FF3318460C37BD465DF8047B704780B430
:102B100083B000AF786039603B684FF400525A6070
:102B2000002318460C37BD465DF8047B704780B41F
:102B300083B000AF7860012318460C37BD465DF8BE
:102B4000047B704780B485B000AFF860B9607A60EC
:102B5000002318461437BD465DF8047B704700001B
:102B600080B586B000AF7860144A154BD31A7B61EC
:102B70007B693B61134B1B68002B02D1114B124A3E
:102B80001A60104B1A687B6813443A699A4207D25C
:102B900005F022FE03460C221A604FF0FF3309E0D5
:102BA000084B1B68FB60074B1A687B681344054A97
:102BB0001360FB6818461837BD4680BD0000022030
:102BC0000004000038020020E826002080B400AF96
:102BD000064BD3F88830054A43F47003C2F88830B6
:102BE00000BFBD465DF8047B704700BF00ED00E00C
:102BF000DFF834D00D480E490E4A002302E0D458C5
:102C0000C4500433C4188C42F9D30B4A0B4C002334
:102C100001E013600432A242FBD3FFF7D7FF05F0B7
:102C2000E1FDFEF79DFB7047000002200000002040
:102C3000E0010020FCC00208E0010020E4260020A2
:102C4000FEE780B500AF002000F004F803469BB219
:102C5000184680BD80B582B000AF0346FB71FB799A
:102C6000184601F029FE01F039FE034618460837E0
:102C7000BD4680BD80B582B000AF03460A46FB71F9
:102C80001346BB71084B01221A70FB79184601F0FC
:102C900013FEBB79184601F030FE034B00221A7078
:102CA00000BF0837BD4680BD4002002080B582B01D
:102CB00000AFC720FFF7CEFF0346FB71FB79012B66
:102CC00056D1882001F0F8FD01F038FE0A2001F00D
:102CD00014FE01F046FE892001F0EEFD01F02EFE0B
:102CE000022001F00AFE01F03CFE0A211020FFF74D
:102CF000C1FF82210420FFF7BDFF01F032FE3B211E
:102D00001420FFF7B7FF00211520FFF7B3FF0121C3
:102D10001620FFF7AFFF00211720FFF7ABFF0521BB
:102D20001820FFF7A7FF0F211920FFF7A3FF0121AC
:102D30001A20FFF79FFF02211B20FFF79BFF0021B6
:102D40001C20FFF797FF07211D20FFF793FF0021AD
:102D50001E20FFF78FFF09211F20FFF78BFF3D4B40
:102D60004FF488721A803C4B4FF4F0721A8055E091
:102D7000384B4FF4F0721A80374B4FF448721A8078
:102D8000882001F099FD01F0D9FD0C2001F0B5FD7E
:102D900001F0E7FD892001F08FFD01F0CFFD022059
:102DA00001F0ABFD01F0DDFD0A211020FFF762FF0D
:102DB00081210420FFF75EFF01F0D3FD6321142081
:102DC000FFF758FF00211520FFF754FF03211620BD
:102DD000FFF750FF03211720FFF74CFF0B211820AE
:102DE000FFF748FFDF211920FFF744FF01211A20D8
:102DF000FFF740FF1F211B20FFF73CFF00211C2095
:102E0000FFF738FF16211D20FFF734FF00211E2099
:102E1000FFF730FF01211F20FFF72CFF0121C72002
:102E2000FFF728FF80210120FFF724FF0021402029
:102E3000FFF720FF00214120FFF71CFF054B1A88F8
:102E4000054B1B880021002000F008F800BF083760
:102E5000BD4680BD0A0000200C00002090B585B062
:102E600000AF0446084611461A462346FB80034637
:102E7000BB800B467B8013463B80FB88DBB2194648
:102E80003020FFF7F7FEFB881B0A9BB2DBB2194626
:102E90003120FFF7EFFEBB88DBB219463220FFF787
:102EA000E9FEBB881B0A9BB2DBB219463320FFF751
:102EB000E1FE3A88FB8813449BB2013BFB81FB890E
:102EC000DBB219463420FFF7D5FEFB891B0A9BB203
:102ED000DBB219463520FFF7CDFE7A88BB88134454
:102EE0009BB2013BFB81FB89DBB219463620FFF721
:102EF000C1FEFB891B0A9BB2DBB219463720FFF7E4
:102F0000B9FEBA88FB881146184600F019F8084A3D
:102F1000FB881380074ABB881380074A7B8813808D
:102F2000064A3B88138000BF1437BD4690BD00BFE2
:102F3000420200204402002004000020060000207D
:102F400080B582B000AF03460A46FB801346BB80C3
:102F5000FB88DBB219464620FFF78CFEFB881B0A74
:102F60009BB2DBB219464720FFF784FEBB88DBB279
:102F700019464820FFF77EFEBB881B0A9BB2DBB2D6
:102F800019464920FFF776FE00BF0837BD4680BDD1
:102F900090B585B002AF0346FB800D4B18880D4BF2
:102FA00019880D4B1A880D4B1B880024009400F0E3
:102FB00057F80C2000F0AEF8FB88184600F0B8F87F
:102FC00000F03AF900F048F900BF0C37BD4690BD5B
:102FD00042020020440200200400002006000020DD
:102FE00080B582B000AF0346FB800B46BB80134622
:102FF0007B801A4B01221A70462001F05DFCFB8891
:10300000DBB2184601F079FC472001F055FCFB8843
:103010001B0A9BB2DBB2184601F06FFC482001F09E
:103020004BFCBB88DBB2184601F067FC492001F07D
:1030300043FCBB881B0A9BB2DBB2184601F05DFC67
:10304000022001F039FC7B88184600F0E5F8034BBC
:1030500000221A7000BF0837BD4680BD4002002024
:1030600090B583B000AF0446084611461A46234681
:10307000FB800346BB800B467B8013463B80FB886E
:10308000DBB219465820FFF7F5FDFB881B0A9BB2FF
:10309000DBB219465920FFF7EDFDBB88DBB21946BC
:1030A0005A20FFF7E7FD3B7E002B08D1BB881B0AA7
:1030B0009BB2DBB219465B20FFF7DCFD0AE0BB8860
:1030C0001B0A9BB2DBB263F07F03DBB219465B20C5
:1030D000FFF7D0FD3B88DBB219465C20FFF7CAFD45
:1030E0003B881B0A9BB2DBB219465D20FFF7C2FD8D
:1030F0007B88DBB219465E20FFF7BCFD7B881B0A8C
:103100009BB2DBB219465F20FFF7B4FD00BF0C375E
:10311000BD4690BD80B582B000AF0346FB71FB7920
:1031200019465120FFF7A6FD00BF0837BD4680BDF8
:1031300080B582B000AF0346FB80FB88DB0A9BB200
:10314000DBB219466320FFF795FDFB885B11DBB20C
:1031500003F03F03DBB219466420FFF78BFDFB88C9
:10316000DBB203F01F03DBB219466520FFF782FDD7
:1031700000BF0837BD4680BD90B585B000AF04469E
:10318000084611461A462346FB800346BB800B4681
:103190007B8013463B800023FB603B887A88B9889C
:1031A000F888FFF75BFE134B01221A70022001F032
:1031B00083FB3B6ABB600023FB6009E0BB689A1C91
:1031C000BA601B88184600F027F8FB680133FB60E3
:1031D0007B883A8802FB03F31A46FB689342EDD3DF
:1031E000044B00221A7000F007F800BF1437BD46E8
:1031F00090BD00BF4002002080B500AF044B1A888C
:10320000044B1B8800210020FFF728FE00BF80BD73
:103210000A0000200C00002080B483B000AF0346F9
:10322000FB804FF0D842FB88138000BF0C37BD46AF
:103230005DF8047B7047000080B500AF054B0122AC
:103240001A70502001F038FB802001F056FB00BFBF
:1032500080BD00BF4002002080B500AF00BF01F07C
:103260005DFB034603F04003402BF8D0024B0022E5
:103270001A7000BF80BD00BF4002002080B582B040
:1032800000AF0346FB71FB79002B04D100218A209B
:10329000FFF7F0FC10E0FB79FF2B04D140218A20DE
:1032A000FFF7E8FC08E08C218A20FFF7E3FCFB79BC
:1032B00019468B20FFF7DEFC00BF0837BD4680BDF6
:1032C00080B584B000AF03460A46FB801346BB803E
:1032D00001214020FFF7CEFCBA88FB881146184632
:1032E00000F01CF80C4B01221A70022001F0E4FAE5
:1032F00000F03CF80346FB8100F038F80346FB8100
:1033000000F034F80346FB81034B00221A70FB895E
:1033100018461037BD4680BD4002002080B582B0FF
:1033200000AF03460A46FB801346BB80FB88DBB236
:1033300019464A20FFF79EFCFB881B0A9BB2DBB2B2
:1033400019464B20FFF796FCBB88DBB219464C2090
:10335000FFF790FCBB881B0A9BB2DBB219464D20DD
:10336000FFF788FC00BF0837BD4680BD80B483B03E
:1033700000AF4FF0D8431B88FB80FB8818460C3702
:10338000BD465DF8047B704780B500AF0421F02096
:10339000FFF770FC04217120FFF76CFCB221702054
:1033A000FFF768FC00BF80BD90B583B000AF044656
:1033B000084611461A462346FB800346BB800B464F
:1033C0007B8013463B80FB88DBB219469120FFF7D8
:1033D00051FCFB881B0A9BB2DBB219469220FFF717
:1033E00049FCBB88DBB219469320FFF743FCBB883E
:1033F0001B0A9BB2DBB219469420FFF73BFCFB880B
:10340000DAB23B88DBB21344DBB2013BDBB21946D4
:103410009520FFF72FFCFA883B881344013B1B12D1
:10342000DBB219469620FFF725FCBB88DAB27B8811
:10343000DBB21344DBB2013BDBB219469720FFF746
:1034400019FCBA887B881344013B1B12DBB2194676
:103450009820FFF70FFC3B8B1846FFF769FE094BDE
:1034600001221A70902001F027FA902001F045FA0D
:1034700000F00AF8034B00221A7000BF0C37BD465B
:1034800090BD00BF4002002080B500AF00BF01F03A
:1034900045FA034603F08003802BF8D000BF00BF3D
:1034A00080BD000090B583B000AF044608461146C9
:1034B0001A462346FB800346BB800B467B8013469F
:1034C0003B807B88FF2B34D8FB88DBB219469920E0
:1034D000FFF7D0FBFB881B0A9BB2DBB219469A2090
:1034E000FFF7C8FBBB88DBB219469B20FFF7C2FB86
:1034F000BB881B0A9BB2DBB219469C20FFF7BAFBC4
:103500007B88DBB219469D20FFF7B4FB3B88184649
:10351000FFF70EFE094B01221A70902001F0CCF942
:10352000402001F0EAF9FFF7AFFF044B00221A70C8
:1035300000E000BF0C37BD4690BD00BF4002002038
:1035400080B400AF064B1B78DBB2002B01D1002307
:1035500000E001231846BD465DF8047B704700BFBC
:103560004002002080B582B000AFF120FFF772FB6F
:103570000346FB71FB7903F00403002B2CD074206D
:10358000FFF768FB0346BB717220FFF763FB03463E
:10359000BB80BB889B00BB80BB799BB203F003035D
:1035A0009AB2BB881344BB80154ABB881380732032
:1035B000FFF750FB0346BB80BB889B00BB80BB79F9
:1035C0009B109BB203F003039AB2BB881344BB80E9
:1035D0000C4ABB88138005E0094B00221A80094B76
:1035E00000221A80F12001F067F9042001F085F92A
:1035F000034B1B889BB218460837BD4680BD00BFF1
:103600003C0200203E02002080B400AF034B1B8828
:103610009BB21846BD465DF8047B70473E02002011
:1036200090B583B000AF0446084611461A462346BB
:10363000FB800346BB800B467B8013463B80FB88A8
:10364000DBB219469120FFF715FBFB881B0A9BB2E2
:10365000DBB219469220FFF70DFBBB88DBB219469F
:103660009320FFF707FBBB881B0A9BB2DBB219460E
:103670009420FFF7FFFAFB88DAB23B88DBB21344F1
:10368000DBB2013BDBB219469520FFF7F3FAFA886B
:103690003B881344013B1B12DBB219469620FFF70F
:1036A000E9FABB88DAB27B88DBB21344DBB2013BB8
:1036B000DBB219469720FFF7DDFABA887B881344FE
:1036C000013B1B12DBB219469820FFF7D3FA3B8B64
:1036D0001846FFF72DFD094B01221A70902001F0CA
:1036E000EBF8B02001F009F9FFF7CEFE034B002202
:1036F0001A7000BF0C37BD4690BD00BF40020020CD
:1037000080B500AF002000F003F80346184680BDE6
:1037100080B483B000AF0346FB804FF0C043FA880B
:1037200092B21A80044B1B889BB218460C37BD46D8
:103730005DF8047B704700BF0000086090B585B05D
:1037400000AF78600B467B8013463B8000F05AFA4E
:10375000A02000F077FA00F0E5FA0346002B3ED1F6
:103760007B881B0A9BB2DBB2184600F06BFA00F0B4
:10377000D9FA0346002B34D17B88DBB2184600F01F
:1037800061FA00F0CFFA0346002B2CD100F03AFA90
:10379000A12000F057FA00F0C5FA0346002B24D10F
:1037A0000023FB8113E0FB897A68D41800F08AFAC1
:1037B00003462370FA893B88013B9A4202D000F00D
:1037C000DDFA01E000F0FAFAFB890133FB81FA89A6
:1037D0003B889A42E7D300F00DFB012309E000BFCC
:1037E00004E000BF02E000BF00E000BF00F002FB09
:1037F000002318461437BD4690BD80B584B000AF95
:1038000078600B467B8013463B807B887B8100235E
:10381000FB814BE0FB89002B04D07B8903F03F0345
:10382000002B31D100F0E6FA0023BB810CE000F060
:10383000E9F9A02000F006FA00F074FA0346002B24
:1038400007D0BB890133BB81BB89B3F57A7FEED347
:1038500000E000BFBB89B3F57A7F2FD07B891B0ABC
:103860009BB2DBB2184600F0EDF900F05BFA0346BC
:10387000002B25D17B89DBB2184600F0E3F900F07C
:1038800051FA0346002B1DD1FB897A6813441B783B
:10389000184600F0D7F900F045FA0346002B13D183
:1038A0007B8901337B81FB890133FB81FA893B886A
:1038B0009A42AFD300F09EFA012309E000BF04E072
:1038C00000BF02E000BF00E000BF00F093FA002359
:1038D00018461037BD4680BD80B5ACB000AF0023A0
:1038E0003B61624B1B6B614A43F0080313635F4B00
:1038F0001B6B03F008033B613B690023FB605B4BE0
:103900001B6B5A4A43F010031363584B1B6B03F0B5
:103910001003FB60FB680023BB60544B1B6B534AD6
:1039200043F020031363514B1B6B03F02003BB6078
:10393000BB6800237B604D4B1B6B4C4A43F040033C
:1039400013634A4B1B6B03F040037B607B680023CF
:103950003B60464B9B6B454A43F001039363434BEB
:103960009B6B03F001033B603B684FF633737B6155
:103970000223BB6103233B620023FB610C237B62B8
:1039800007F1140319463A4803F08EFA4FF6BB7359
:103990007B610C237B6207F114031946354803F061
:1039A00083FA4FF23F037B610C237B6207F1140320
:1039B0001946314803F078FA40F23F437B610C230B
:1039C0007B6207F1140319462C4803F06DFA0323B8
:1039D0007B640023BB640223FB6401233B6500235B
:1039E0007B650023BB650023FB650323BB620023CB
:1039F000FB6202233B6301237B630023BB63002341
:103A0000FB6300233B644FF020433B660423BB660B
:103A10000023FB6600233B6710237B670023BB6703
:103A20000023C7F894300023FB670023C7F88030D9
:103A30000023C7F884304FF48053C7F88830002340
:103A4000C7F88C300023C7F890300023C7F89830AF
:103A500007F1440207F1280107F160031846FEF759
:103A6000CDFA00BFB037BD4680BD00BF0038024070
:103A7000000C0240001002400014024000180240F6
:103A800080B487B000AF544B7B604FF0D0433B61B4
:103A900000237B6107E03B691A1D3A617A691A606D
:103AA0007B6901337B617B69B3F5002FF3D300237E
:103AB000BB604FF0D0433B6100237B610CE03B696E
:103AC0001A1D3A611B687A699A4202D0BB680133B9
:103AD000BB607B6901337B617B69B3F5002FEED35B
:103AE000BB68002B04D0BB68DBB29B00DBB26CE090
:103AF0004FF0D0433B6100237B610AE03B691B68C8
:103B0000DA433B691A603B6904333B617B690133EB
:103B10007B617B69B3F5002FF0D30023BB604FF0CE
:103B2000D0433B6100237B610DE03B691A1D3A6184
:103B30001A687B69DB439A4202D0BB680133BB60E1
:103B40007B6901337B617B69B3F5002FEDD3BB68E3
:103B5000002B04D0BB68DBB29B00DBB235E04FF03A
:103B6000D043FB6000237B610AE0FB685A1CFA60CB
:103B7000391D7A690A4412781A707B6901337B61B6
:103B80007B69032BF1D90023BB604FF0D043FB606E
:103B900000237B610FE0FB685A1CFA601A78391D1C
:103BA0007B690B441B789A4202D0BB680133BB602F
:103BB0007B6901337B617B69032BECD9BB68002BEC
:103BC00002D0BB68DBB200E0002318461C37BD46BC
:103BD0005DF8047B704700BF55A55AAA80B483B036
:103BE00000AF0023FB7102E0FB790133FB71FB792D
:103BF0001D2BF9D900BF00BF0C37BD465DF8047B13
:103C00007047000080B500AF012220210C4803F06E
:103C1000FFFA012210210A4803F0FAFAFFF7DEFF4B
:103C200000222021064803F0F3FAFFF7D7FF002215
:103C30001021034803F0ECFAFFF7D0FF00BF80BD6E
:103C4000001C024080B584B000AF0346FB71002326
:103C5000FB732CE097F90730002B05DA01222021B5
:103C6000174803F0D5FA04E000222021144803F09D
:103C7000CFFAFFF7B3FF01221021114803F0C8FA71
:103C8000FFF7ACFF002210210D4803F0C1FAFB7BC7
:103C9000072B04D101222021094803F0B9FAFB794E
:103CA0005B00FB71FFF79AFFFB7B0133FB73FB7B30
:103CB000072BCFD900BF00BF1037BD4680BD00BF66
:103CC000001C024080B582B000AF0023BB7100230E
:103CD000FB711DE0BB795B00BB7101221021104814
:103CE00003F096FAFFF77AFF20210D4803F078FAE7
:103CF0000346012B02D1BB790133BB710022102195
:103D0000074803F085FAFFF769FFFB790133FB7180
:103D1000FB79072BDED9BB7918460837BD4680BD35
:103D2000001C024080B582B000AF01222021124861
:103D300003F06EFAFFF752FF012210210E4803F044
:103D400067FAFFF74BFF20210B4803F049FA0346BF
:103D5000012B02D10123FB7101E00023FB71002242
:103D60001021054803F054FAFFF738FFFB79184695
:103D70000837BD4680BD00BF001C024080B500AFC3
:103D8000002220210C4803F043FAFFF727FF01220D
:103D90001021094803F03CFAFFF720FF0022102110
:103DA000054803F035FAFFF719FF012220210248E8
:103DB00003F02EFA00BF80BD001C024080B500AFAA
:103DC000012220210A4803F023FAFFF707FF01220E
:103DD0001021074803F01CFAFFF700FF0022102112
:103DE000034803F015FAFFF7F9FE00BF80BD00BFDE
:103DF000001C024080B500AF00222021084803F0DB
:103E000007FA01221021064803F002FAFFF7E6FE46
:103E100001222021024803F0FBF900BF80BD00BF52
:103E2000001C024080B586B000AF00233B600F4B02
:103E30001B6B0E4A43F0800313630C4B1B6B03F0A8
:103E400080033B603B681123BB600023FB600323BE
:103E50003B6130237B603B1D1946054803F024F885
:103E6000FFF7C8FF00BF1837BD4680BD00380240CD
:103E7000001C024080B584B000AF0346FB712021D6
:103E80000F4803F0ADF90346012B14D110210C4863
:103E900003F0A6F90346012B0DD1FFF7B3FEFB7922
:103EA0001846FFF7CFFEFFF73DFF0346FB73FFF712
:103EB000A1FFFB7B00E0012318461037BD4680BD03
:103EC000001C024080B500AF4FF48071054803F03C
:103ED00087F90346002B0CBF01230023DBB21846F1
:103EE00080BD00BF0020024080B500AF4FF40051FC
:103EF000054803F075F90346002B0CBF012300238E
:103F0000DBB2184680BD00BF0008024080B500AF9C
:103F10004FF40061054803F063F90346002B0CBF22
:103F200001230023DBB2184680BD00BF0020024001
:103F300080B500AF0421054803F052F90346002B79
:103F40000CBF01230023DBB2184680BD001C0240D9
:103F500080B500AF0821054803F042F90346002B65
:103F60000CBF01230023DBB2184680BD001C0240B9
:103F700080B500AF4FF40061054803F031F9034606
:103F8000002B0CBF01230023DBB2184680BD00BF0D
:103F90000014024080B500AF8021054803F020F9ED
:103FA0000346002B0CBF01230023DBB2184680BD63
:103FB0000018024080B500AF4FF40041054803F0FF
:103FC0000FF90346002B0CBF01230023DBB2184678
:103FD00080BD00BF001C024080B500AFFFF772FF3C
:103FE0000346002B06D0FFF77FFF0346002B01D0CE
:103FF000012300E00023184680BD80B500AFFFF725
:1040000061FF0346002B06D0FFF76EFF0346002B2F
:1040100001D0012300E00023184680BD80B500AF29
:1040200000F0A8F800F002F800BF80BD80B58AB0AB
:1040300000AF00233B61494B1B6B484A43F004032C
:104040001363464B1B6B03F004033B613B69002386
:10405000FB60424B1B6B414A43F0200313633F4B11
:104060001B6B03F02003FB60FB680023BB603B4B32
:104070001B6B3A4A43F080031363384B1B6B03F00E
:104080008003BB60BB6800237B60344B1B6B334AEF
:1040900043F480731363314B1B6B03F480737B60B9
:1040A0007B6800233B602D4B1B6B2C4A43F0400385
:1040B00013632A4B1B6B03F040033B603B680023F8
:1040C000BB610123FB6102233B624FF480737B6180
:1040D00007F114031946224802F0E6FE4FF400539C
:1040E0007B6107F1140319461E4802F0DDFE4FF410
:1040F00000637B6107F114031946194802F0D4FEEE
:1041000004237B6107F114031946174802F0CCFE23
:1041100008237B6107F114031946134802F0C4FE1B
:104120004FF400637B6107F1140319460F4802F056
:10413000BBFE80237B6107F1140319460C4802F093
:10414000B3FE4FF400437B6107F1140319460648A0
:1041500002F0AAFE00BF2837BD4680BD00380240ED
:104160000020024000080240001C024000140240EF
:104170000018024080B483B000AF3D4B00229A7219
:104180003B4B0022DA723A4B00221A730023FB7178
:1041900025E0FB79374A1B011344083364221A8057
:1041A000FB79344A1B011344043302221A70FB7951
:1041B000304A1B0113440A3300221A70FB792D4A3E
:1041C0001B0113440B3300221A70FB79294A1B018F
:1041D00013440C3300221A70FB790133FB71FB7915
:1041E000092BD6D9234B64221A87224B052283F848
:1041F0003B20204B6422A3F848201E4B052283F865
:104200004B201C4B6422A3F858201A4B052283F83C
:104210005B20184B6422A3F86820164B052283F814
:104220006B20144B144A1A60124B144A1A61114B3A
:10423000134A1A620F4B134A1A630E4B124A1A643E
:104240000C4B124A1A650B4B114A1A66094B114A5C
:104250001A67084B104AC3F88020064B0F4AC3F870
:10426000902000BF0C37BD465DF8047B704700BF4F
:10427000E802002048020020C53E0008E93E000890
:104280000D3F0008313F0008513F0008713F000812
:10429000953F0008B53F0008D93F0008FB3F0008E4
:1042A00080B483B000AF0346FB710C4BDB7A194638
:1042B0000A4AFB795354094BDB7A0133DAB2074BD4
:1042C000DA72064BDB7A092B02D9044B0022DA7230
:1042D00000BF0C37BD465DF8047B7047E802002044
:1042E00080B584B000AF0346FB71FB791B014D4ADA
:1042F0001344FB60FB681B6898470346002B62D0A1
:10430000FB681B79042B03D8FB6805221A7184E033
:10431000FB681B79092B06D8FB681B790133DAB2DD
:10432000FB681A7179E0FB689B7A002B0CD1FB6863
:1043300001229A72FB791A4652001344DBB2013310
:10434000DBB21846FFF7ACFFFB681B89002B64D07B
:10435000FB68DA88FB681B899A4216D2FB68DB8807
:1043600001339AB2FB68DA80FB68DA88FB681B8944
:104370009A4252D1FB790133DBB21A465200134400
:10438000DBB21846FFF78CFF47E0FB68DB7A002BB7
:1043900043D0FB681B7B0133DAB2FB681A73FB68FE
:1043A0001A7BFB68DB7A9A4237D3FB6800221A73C8
:1043B000FB791A4652001344DBB20133DBB21846D4
:1043C000FFF76EFF29E0FB681B79052B03D9FB681B
:1043D00005221A711BE0FB681B79002B06D0FB68D5
:1043E0001B79013BDAB2FB681A7110E0FB689B7A1B
:1043F000012B0CD1FB6800229A72FB791A465200FD
:104400001344DBB20233DBB21846FFF749FFFB6807
:104410000022DA80FB6800221A7300BF1037BD4605
:1044200080BD00BF4802002080B582B000AF0023ED
:10443000FB7106E0FB791846FFF752FFFB79013369
:10444000FB71FB79092BF5D900BF00BF0837BD46CA
:1044500080BD000080B483B000AF114B1A7B104BBD
:10446000DB7A9A4201D1002313E00D4B1B7B1A46E5
:104470000B4B9B5CFB710A4B1B7B0133DAB2084B85
:104480001A73074B1B7B092B02D9054B00221A73A9
:10449000FB7918460C37BD465DF8047B704700BFBA
:1044A000E802002080B483B000AF114B9A7A104B21
:1044B000DB7A9A4201D1002313E00D4B9B7A1A4616
:1044C0000B4B9B5CFB710A4B9B7A0133DAB2084BB6
:1044D0009A72074B9B7A092B02D9054B00229A72DC
:1044E000FB7918460C37BD465DF8047B704700BF6A
:1044F000E802002080B58AB000AF00233B61404B4A
:104500001B6B3F4A43F4807313633D4B1B6B03F4F7
:1045100080733B613B690023FB60394B1B6B384A5E
:1045200043F004031363364B1B6B03F00403FB607F
:10453000FB680023BB60324B1B6B314A43F0200306
:1045400013632F4B1B6B03F02003BB60BB6800237E
:104550007B602B4B1B6B2A4A43F080031363284B71
:104560001B6B03F080037B607B6800233B60244B64
:104570001B6B234A43F001031363214B1B6B03F0B6
:1045800001033B603B68012000F07AF8022000F054
:1045900077F8032000F074F8042000F071F84FF46D
:1045A00080637B610123BB610023FB6102233B62CB
:1045B00007F114031946134802F076FC4FF4C07358
:1045C0007B610123BB610023FB6102233B6207F196
:1045D000140319460C4802F067FC04237B61012395
:1045E000BB610023FB6102233B6207F11403194600
:1045F000064802F059FC00BF2837BD4680BD00BF09
:10460000003802400020024000140240000802402E
:1046100080B582B000AF0346FB71FB79013BFB71B3
:10462000FB79002B06D100224FF48061114802F083
:10463000EFFD1AE0FB79012B05D1002280210E4805
:1046400002F0E6FD11E0FB79022B06D100224FF4C7
:104650008071094802F0DCFD07E0FB79032B04D1EF
:1046600000220421054802F0D3FD00BF0837BD46F3
:1046700080BD00BF0020024000140240000802403C
:1046800080B582B000AF0346FB71FB79013BFB7143
:10469000FB79002B06D101224FF48061114802F012
:1046A000B7FD1AE0FB79012B05D1012280210E48CC
:1046B00002F0AEFD11E0FB79022B06D101224FF48E
:1046C0008071094802F0A4FD07E0FB79032B04D1B7
:1046D00001220421054802F09BFD00BF0837BD46BA
:1046E00080BD00BF002002400014024000080240CC
:1046F00080B5ACB000AF00233B616A4B1B6B694ACD
:1047000043F008031363674B1B6B03F008033B6123
:104710003B690023FB60634B1B6B624A43F0100351
:104720001363604B1B6B03F01003FB60FB680023FB
:10473000BB605C4B1B6B5B4A43F020031363594B1C
:104740001B6B03F02003BB60BB6800237B60554BF1
:104750001B6B544A43F040031363524B1B6B03F033
:1047600040037B607B6800233B604E4B9B6B4D4A54
:1047700043F0010393634B4B9B6B03F001033B60DE
:104780003B684FF633737B610223BB6103233B62BB
:104790000023FB610C237B6207F114031946424896
:1047A00002F082FB4FF6F8737B610C237B6207F10A
:1047B000140319463D4802F077FB4FF23F037B613B
:1047C0000C237B6207F114031946394802F06CFB95
:1047D00040F23F237B610C237B6207F114031946EF
:1047E000344802F061FB40237B610023BB6103235B
:1047F0003B620023FB6107F1140319462A4802F0CB
:1048000053FB06237B640123BB640C23FB6400235E
:104810003B6500237B650023BB654FF08053FB6540
:104820000623BB620123FB620C233B6300237B63F3
:104830000023BB630023FB634FF080533B644FF0C6
:1048400020433B660223BB660023FB6608233B67CD
:1048500010237B670023BB670023C7F89430002335
:10486000FB670023C7F880300023C7F884304FF47B
:104870008053C7F888300023C7F88C300023C7F86E
:1048800090300023C7F8983007F1440207F128015F
:1048900007F160031846FDF7B1FB00BFB037BD4616
:1048A00080BD00BF00380240000C024000100240F2
:1048B000001402400018024080B483B000AF0346E9
:1048C000FB71054BFA7992B21A8000BF0C37BD46D6
:1048D0005DF8047B704700BF0000086C80B483B0B3
:1048E00000AF4FF0D8431B889BB2FB71FB79184691
:1048F0000C37BD465DF8047B704780B483B000AFD1
:104900000346FB714FF0D843FA7992B21A8000BF88
:104910000C37BD465DF8047B7047000080B483B05F
:1049200000AF054B1B889BB2FB71FB7918460C3717
:10493000BD465DF8047B70470000086C80B483B00E
:1049400000AF0023FB7102E0FB790133FB71FB79BF
:10495000092BF9D900BF00BF0C37BD465DF8047BB9
:10496000704780B483B000AF0023FB8002E0FB8877
:104970000133FB80FB8841F287329342F7D900BFB5
:1049800000BF0C37BD465DF8047B704780B588B02A
:1049900000AF07F10C0300221A605A609A60DA60D7
:1049A0001A610023BB60524B1B6B514A43F020033A
:1049B00013634F4B1B6B03F02003BB60BB680023EA
:1049C0007B604B4B1B6B4A4A43F002031363484B1B
:1049D0001B6B03F002037B607B6800233B60444B4E
:1049E0005B6C434A43F480535364414B5B6C03F468
:1049F00080533B603B6802233B610223BB6102237F
:104A00007B610523FB613823FB6007F10C0319462A
:104A1000384802F049FA01224FF48071364802F01A
:104A2000F7FB4FF48073FB6001233B6100237B6144
:104A30000223BB6107F10C0319462F4802F034FA38
:104A40002E4B2F4A1A602D4B4FF482725A602B4B1B
:104A500000229A60294B0022DA60284B02221A6158
:104A6000264B01225A61254B4FF400729A61234B69
:104A70000822DA61214B00221A62204B00225A627E
:104A80001E4B00229A621D4B0722DA621B48FCF77C
:104A9000B5FF0346002B01D0FCF704FD174B1B6844
:104AA0001A68164B1B6822F040021A60134B1B68F1
:104AB0001A68124B1B6842F040021A6000F022F89C
:104AC00000224FF480710C4802F0A2FB042000F099
:104AD000BBF801224FF48071074802F099FB00F007
:104AE000CDF8002000F0E8F800BF2037BD4680BDBB
:104AF000003802400004024000140240F802002086
:104B00000030014098B500AF00F06EF803462D4A22
:104B100013602C4B1B682C4A93422ED02A4A934296
:104B20003CD82A4A934203D0294A934211D035E017
:104B3000284B294A07CA83E80700264801F0C8FF26
:104B4000204B4FF400125A611E4B4FF480521A83CF
:104B500036E0204B214A07CA03C31A800233120CE5
:104B60001A701C4801F0B4FF164B4FF400125A6142
:104B7000144B4FF480521A8322E0164B184A07CA8E
:104B800003C31A70134801F0A3FF0E4B4FF4000249
:104B90005A610C4B4FF480521A8311E00D4A114BAD
:104BA00014460FCB07C423700A4801F091FF054B50
:104BB0004FF400125A61034B4FF480521A8300BF26
:104BC00000BF98BD500300201740EF004125BF00F3
:104BD0001520C200540300202CA9000838A90008A1
:104BE00044A9000850A9000880B582B000AF002297
:104BF0004FF48071134802F00BFB9F2000F024F863
:104C0000A52000F021F80346FB71A52000F01CF858
:104C10000346BB71A52000F017F803467B71012203
:104C20004FF48071074802F0F3FAFB791A04BB795C
:104C30001B021A437B7913433B603B6818460837D5
:104C4000BD4680BD0014024080B586B002AF034669
:104C5000FB710023BB7307F10E02F91D4FF0FF3308
:104C6000009301230448FCF75CFF0346FB73BB7B06
:104C700018461037BD4680BDF802002080B500AF51
:104C800000224FF480710B4802F0C2FA0520FFF7B2
:104C9000DBFF00BFA520FFF7D7FF034603F00103AA
:104CA000012BF7D001224FF48071024802F0B0FAD4
:104CB00000BF80BD0014024080B582B000AF034643
:104CC000FB711F4B1B681F4A934222D100224FF4F5
:104CD00080711D4802F09CFA5020FFF7B5FF0122B9
:104CE0004FF48071184802F093FA00224FF480715B
:104CF000154802F08DFA0120FFF7A6FFFB79184650
:104D0000FFF7A2FF01224FF480710F4802F080FAF2
:104D100012E000224FF480710B4802F079FA012072
:104D2000FFF792FFFB791846FFF78EFF01224FF441
:104D30008071054802F06CFA00BF0837BD4680BD9F
:104D4000500300204125BF000014024080B582B00E
:104D500000AF00F039F800F0AFF8142001F06EFF5A
:104D6000FEF7CEFC0346FB80FB8845F220429342CF
:104D70001FD0FB884BF2095293421AD0FB8845F2B0
:104D80002052934215D0FDF75CFF0346752B05D1E9
:104D90000A4B75221A80FDF789FF0AE0074B44F29F
:104DA00001021A80064BF0221A80064B4FF4C8729B
:104DB0001A8000BF0837BD4680BD00BF0800002034
:104DC0000A0000200C00002080B58AB000AF00234C
:104DD0003B61354B9B6B344A43F001039363324B89
:104DE0009B6B03F001033B613B690023FB602E4B8F
:104DF0001B6B2D4A43F0080313632B4B1B6B03F013
:104E00000803FB60FB680023BB60274B1B6B264A33
:104E100043F010031363244B1B6B03F01003BB60C0
:104E2000BB6800237B60204B1B6B1F4A43F0400391
:104E300013631D4B1B6B03F040037B607B684CF2DC
:104E400033737B610223BB6103233B620023FB615D
:104E50000C237B6207F114031946144802F024F86E
:104E60004FF6B0737B6107F114031946104802F046
:104E70001BF84FF400537B610C237B6207F1140392
:104E800019460A4802F010F84FF480537B610C2356
:104E90007B6207F114031946064802F005F800BFCB
:104EA0002837BD4680BD00BF00380240000C0240DC
:104EB000001002400018024080B5A2B000AF0423E9
:104EC000FB6100233B6206237B620123BB6200235C
:104ED000FB6200233B6300237B6304233B600023CE
:104EE0007B600823BB600123FB6000233B61002340
:104EF0007B610023BB614FF02043BB63134BFB631B
:104F000006233B6400237B641023FB6400233B6582
:104F10000023FB6600237B650023BB650023FB6544
:104F20004FF480533B6600237B660023BB6600235F
:104F30003B6707F11C02394607F138031846FDF7B5
:104F40005DF800BF8837BD4680BD00BF040100A0EA
:104F500080B582B000AF0346FB80064B1B88752BE3
:104F600003D1FB881846FEF713F800BF0837BD468B
:104F700080BD00BF0800002080B582B000AF0346AE
:104F8000FB71074AFB791370064B1B88752B03D105
:104F9000FB791846FEF772F900BF0837BD4680BDA1
:104FA0006C0300200800002090B585B002AF0446D5
:104FB000084611461A462346FB800346BB800B4633
:104FC0007B8013463B80084B1B88752B08D13C889F
:104FD0007A88B988F888BB6900932346FEF7CCF835
:104FE00000BF0C37BD4690BD0800002080B59EB0C4
:104FF00000AFBA607B600346FB810B46BB817B68D8
:105000001B88012B0ED10C2387F86A300C2387F8FC
:105010006B30182387F86930834B3B664FF0C843E9
:10502000FB65F5E0102387F86A30102387F86B30B2
:10503000202387F869307D4B3B667D4BFB65E7E0BD
:10504000BB681B7887F85B3097F95B30002B1ADB65
:1050500097F85B3097F869205208D2B202FB03F34D
:105060001A463B6E991897F869305B08DBB21A460E
:1050700007F11003184603F0DCFB97F86B305B0870
:1050800087F86F3056E0BB680133BB60BB681B78A4
:1050900087F85A3097F85A30002B00F0BF8097F805
:1050A0005B30A02B1AD997F85B30A92B16D897F84C
:1050B0005A30A02B12D997F85B30A13B5E2203FB3C
:1050C00002F297F85A30A13B134497F8692002FB8B
:1050D00003F31A46FB6D13443B671FE097F85B3000
:1050E000AF2B1BD997F85B30F72B17D897F85A30AE
:1050F000A02B13D997F85B30B03B5E2203FB02F282
:1051000097F85A30A13B134403F24E3397F86920C5
:1051100002FB03F31A46FB6D13443B67396F97F8A4
:10512000692007F11003184603F083FB97F86B30F2
:1051300087F86F30BB89A7F864300023A7F86C307C
:1051400052E0FB89A7F8663000237B673DE0B7F8A3
:105150006C3097F86F20510097F86B2091FBF2F2BA
:1051600002FB03F31A467B6FDB08134478333B449E
:1051700013F8683C19467B6F03F00703802242FA5C
:1051800003F30B40002B09D07B685A88B7F86410F2
:10519000B7F86630184600F04DF80EE07B689B8843
:1051A00049F69912934208D07B689A88B7F8641040
:1051B000B7F86630184600F03DF8B7F866300133AE
:1051C000A7F866307B6F01337B6797F86F307A6F93
:1051D0009A42BCD3B7F864300133A7F86430B7F80B
:1051E0006C300133A7F86C3097F86A309BB2B7F88F
:1051F0006C209A42A5D397F86F309AB27B68DB880F
:1052000013449AB2FB891344FB81BB680133BB6032
:10521000BB681B78002B7FF413AF00E000BF00BF1A
:105220007837BD4680BD00BF9CA9000890AF00083C
:10523000D0C9026480B582B000AF0346FB800B4644
:10524000BB8013467B80074B1B88752B05D17A8862
:10525000B988FB881846FDF7C3FE00BF0837BD4676
:1052600080BD00BF0800002080B58AB000AFF860A4
:10527000B9601346FB71FB68DB687B627B6A36337F
:105280007B62FB68DB88013B9BB2FB83FFE0002372
:105290003B84EFE07B6A5A1C7A621B787B767B6AE0
:1052A0005A1C7A621B783B767B6A5A1C7A621B789E
:1052B000FB757B6A5A1C7A621B78BB75BB7D002B21
:1052C00000F0D280BB7DFF2B2DD1FB7DDB08DBB254
:1052D000DB021AB23B7E9B08DBB25B011BB21343BD
:1052E0001AB27B7EDB08DBB21BB213431BB27B849A
:1052F000FB79012B08D17B8C0A224FF6E07118460E
:1053000000F010F903467B84FB685A883B8C1344F9
:1053100098B2FB689A88FB8B13449BB27A8C19462F
:10532000FFF788FFA0E0FB685A883B8C134498B2D3
:10533000FB689A88FB8B13449BB2194600F026F950
:105340000346BB82BB8A1B0A9BB2DBB223F0070376
:10535000FB74BB8ADB089BB2DBB223F00303BB7494
:10536000BB8ADB007B74FB7DBA7D02FB03F36C4AD6
:1053700082FB03121A44D211DB17D31ADAB2FB7C78
:10538000B97DC1F1FF0101FB03F3654981FB030115
:105390001944C911DB17CB1ADBB21344FB753B7EF2
:1053A000BA7D02FB03F35E4A82FB03121A44D21158
:1053B000DB17D31ADAB2BB7CB97DC1F1FF0101FB67
:1053C00003F3574981FB03011944C911DB17CB1AB9
:1053D000DBB213443B767B7EBA7D02FB03F3504A7B
:1053E00082FB03121A44D211DB17D31ADAB27B7C88
:1053F000B97DC1F1FF0101FB03F3494981FB0301C1
:105400001944C911DB17CB1ADBB213447B76FB7D41
:10541000DB08DBB2DB021AB23B7E9B08DBB25B012E
:105420001BB213431AB27B7EDB08DBB21BB2134301
:105430001BB27B84FB79012B08D17B8C0A224FF6AF
:10544000E071184600F06EF803467B84FB685A88CA
:105450003B8C134498B2FB689A88FB8B13449BB235
:105460007A8C1946FFF7E6FEB7F920309BB201337C
:105470009BB23B84B7F92030FA6812899342FFF659
:1054800009AFB7F91E309BB2013B9BB2FB83B7F962
:105490001E30002BBFF6FBAEFB6810331846FAF740
:1054A000E7FE03467B837B8B002B35D0BB681B88D4
:1054B000012B0AD1BB68DA887B8B13449BB21A4656
:1054C000520013445B00BB8306E0BB68DA887B8B29
:1054D00013449BB2DB00BB83FB685A88FB681B89C3
:1054E0005B089BB213449AB2BB8B5B089BB2D31A86
:1054F0009BB23B84FB689A88FB68DB8813449BB2B1
:1055000002339BB2FB83388CF98BFB6803F11002EA
:10551000BB68FFF76BFD00E000BF2837BD4680BDCC
:105520008180808080B485B000AF0346FB800B464D
:10553000BB801346FB70FB881A04FB8813431A4692
:10554000114B1340FB60BB881A04BB8813431A46F7
:105550000D4B1340BB60BA68FB68D31AFA7802FBA4
:1055600003F35A09FB681A44074B1340BB60BB683E
:105570001B0C9AB2BB689BB213439BB218461437FC
:10558000BD465DF8047B70471FF8E00780B584B026
:1055900000AF03460A46FB801346BB80084B1B88BE
:1055A000752B07D1BA88FB8811461846FDF788FE8F
:1055B0000346FB81FB8918461037BD4680BD00BFFE
:1055C0000800002080B400AF034B1B881846BD467E
:1055D0005DF8047B704700BF0A00002080B400AF74
:1055E000034B1B881846BD465DF8047B704700BF1F
:1055F0000C00002090B585B002AF04460846114665
:105600001A462346FB800346BB800B467B8013462D
:105610003B80084B1B88752B08D13C887A88B98859
:10562000F8883B8B00932346FDF7BEFE00BF0C3786
:10563000BD4690BD0800002090B583B000AF044681
:10564000084611461A462346FB800346BB800B469C
:105650007B8013463B80074B1B88752B05D13B880D
:105660007A88B988F888FDF71DFF00BF0C37BD4662
:1056700090BD00BF0800002080B483B000AF786008
:10568000264B1B884BF20952934226D04BF209520B
:10569000934233DC45F2204293420AD045F2204245
:1056A00093422BDC752B20D044F2010293420AD0A6
:1056B00024E07B681A491A460B4603CB1060516000
:1056C0001B88138123E07B6816491A460B4603CBDF
:1056D000106051601B78137219E07B6812491A46FA
:1056E0000B4603CB1060516011E07B680F4A1068D5
:1056F00018609188927999809A7108E07B680C4AC9
:10570000106818609188927999809A7100BF00BFE3
:105710000C37BD465DF8047B704700BF08000020D1
:1057200060A900086CA9000878A9000880A90008F1
:1057300088A9000890B585B002AF04460846114616
:105740001A462346FB800346BB800B467B801346EC
:105750003B80084B1B88752B08D13C887A88B98818
:10576000F8883B8B00932346FDF75AFF00BF0C37A8
:10577000BD4690BD0800002090B587B002AF7860AC
:105780007B681B7D012B4BD17B6858887B6899888F
:105790007B68DA887B681B8910240094FFF72AFF56
:1057A0007B685B88013398B27B689B88013399B230
:1057B0007B68DB88023B9AB27B681B89023B9BB209
:1057C0004FF6FF740094FFF715FF7B685B88023388
:1057D00098B27B689B88023399B27B68DB88043B74
:1057E0009AB27B681B89043B9BB249F2B244009495
:1057F000FFF700FF7B685B88033398B27B689B8868
:10580000033399B27B68DB88063B9AB27B681B89BD
:10581000063B9BB247F6FF740094FFF78BFF4AE00C
:105820007B6858887B6899887B68DA887B681B89E5
:1058300010240094FFF7DEFE7B685B88013398B28A
:105840007B689B88013399B27B68DB88023B9AB204
:105850007B681B89023B9BB24FF6FF740094FFF7F5
:10586000C9FE7B685B88023398B27B689B880233F1
:1058700099B27B68DB88043B9AB27B681B89043B46
:105880009BB249F2B2440094FFF7B4FE7B685B8898
:10589000033398B27B689B88033399B27B68DB88BB
:1058A000063B9AB27B681B89063B9BB24CF6596457
:1058B0000094FFF73FFF7B681B691846FAF7D8FC96
:1058C0000346BB817B68DB681B88002B02D1082361
:1058D000FB8109E07B68DB681B88012B02D1062372
:1058E000FB8101E00823FB817B685A887B681B8968
:1058F0005B089BB213449AB2BB89F98901FB03F39D
:10590000D90F0B445B105B429BB213447B817B68D5
:105910009A887B68DB885B089BB213449AB2FB8948
:10592000D31A3B817B681A697B68DB68398978897F
:10593000FFF75CFB00BF1437BD4690BD80B483B059
:1059400000AF03463960FB7197F90730002B0ADB83
:105950003B68DAB20C4997F907301201D2B20B4416
:1059600083F800230AE03B68DAB20849FB7903F0C8
:105970000F03043B1201D2B20B441A7600BF0C375E
:10598000BD465DF8047B704700E100E000ED00E0FB
:1059900080B582B000AF78607B68013BB3F1807F57
:1059A00001D301230FE00A4A7B68013B53600F21BA
:1059B0004FF0FF30FFF7C2FF054B00229A60044B07
:1059C00007221A60002318460837BD4680BD00BF75
:1059D00010E000E080B582B000AF0023FB7129E049
:1059E000FA791C4913465B0013449B000B440433B3
:1059F00000221A60FA79174913465B0013449B0092
:105A00000B44083300221A60FA79124913465B00EE
:105A100013449B000B44013300221A70FA790D499C
:105A200013465B0013449B000B4400221A70FB7961
:105A30000133FB71FB79032BD2D9074B1B68074A53
:105A4000A2FB03239B091846FFF7A2FF00BF0837FC
:105A5000BD4680BD7803002000000020D34D6210B9
:105A600080B582B000AF214B1B68002B09D01F4BC3
:105A70001B68013B1D4A1360002B02D11C4B012205
:105A80001A700023FB710CE0FA7913465B00134493
:105A90009B00184A1344184600F032F8FB79013392
:105AA000FB71FB79032BEFD9134B1B680133124AAF
:105AB0001360114B1B686FF00042934202D10E4BF2
:105AC00000221A6001F042F80C4B1B780133DAB265
:105AD0000A4B1A70094B1B78092B02D9074B00227D
