:020000040800F2
:1000000000000220C51000089D0E0008A30E000885
:10001000A90E0008AF0E0008B50E00080000000091
:10002000000000000000000000000000BB0E0008FF
:10003000C90E000800000000D70E0008E50E0008F9
:1000400015110008151100081511000815110008F8
:1000500015110008151100081511000815110008E8
:1000600015110008151100081511000815110008D8
:1000700015110008151100081511000815110008C8
:1000800015110008151100081511000815110008B8
:1000900015110008151100081511000815110008A8
:1000A0001511000815110008151100081511000898
:1000B0001511000815110008151100081511000888
:1000C0001511000815110008151100081511000878
:1000D0001511000815110008151100081511000868
:1000E0001511000815110008151100081511000858
:1000F0001511000815110008151100081511000848
:100100001511000815110008151100081511000837
:100110001511000815110008151100081511000827
:100120001511000815110008151100081511000817
:100130001511000815110008151100081511000807
:1001400015110008151100081511000815110008F7
:1001500015110008151100081511000815110008E7
:1001600015110008151100081511000815110008D7
:1001700015110008151100081511000800000000F5
:0801800015110008151100081B
:1001880010B5054C237833B9044B13B10448AFF3C9
:1001980000800123237010BD18000020000000001B
:1001A8006835000808B5034B1BB103490348AFF392
:1001B800008008BD000000001C0000206835000811
:1001C800034613F8012B002AFBD1181A013870478F
:1001D80053B94AB9002908BF00281CBF4FF0FF31A6
:1001E8004FF0FF3000F070B9ADF1080C6DE904CEA6
:1001F80000F006F8DDF804E0DDE9022304B07047FA
:100208002DE9F047089E0D4604460F46002B4AD1BB
:100218008A42944665D9B2FA82F343B102FA03FCE2
:10022800C3F120029F4020FA02F217439C404FEA94
:100238001C4E1FFA8CF5B7FBFEF1220C0EFB117752
:1002480042EA074201FB05F090420AD91CEB020280
:1002580001F1FF3780F01C81904240F21981023988
:100268006244121AA4B2B2FBFEF00EFB102244EA5A
:10027800024400FB05F5A5420AD91CEB040400F171
:10028800FF3280F00781A54240F2048164440238BD
:1002980040EA0140641B00211EB1DC400023C6E98E
:1002A8000043BDE8F0878B4208D9002E00F0ED80AE
:1002B8000021C6E900050846BDE8F087B3FA83F1D6
:1002C800002949D1AB4202D3824200F2F880841A55
:1002D80065EB030201201746002EE2D0C6E900476D
:1002E800DFE702B9FFDEB2FA82F3002B40F090801C
:1002F8008A1A4FEA1C471FFA8CFE0121B2FBF7F558
:1003080007FB1520220C42EA00420EFB05F0904242
:1003180008D91CEB020205F1FF3802D2904200F224
:10032800CB804546121AA4B2B2FBF7F007FB1022A5
:1003380044EA02440EFB00FEA64508D91CEB04045F
:1003480000F1FF3202D2A64500F2BB801046A4EBB2
:100358000E0440EA05409FE7C1F120078B4022FACE
:1003680007FC4CEA030C05FA01F420FA07F3FD40F8
:100378004FEA1C492343B5FBF9F81FFA8CFE09FB29
:1003880018551C0C44EA054408FB0EF5A54202FA70
:1003980001F200FA01F00BD91CEB040408F1FF3A52
:1003A80080F08880A54240F28580A8F10208644464
:1003B800641B9DB2B4FBF9F309FB134445EA0444FA
:1003C80003FB0EFEA64508D91CEB040403F1FF3518
:1003D8006CD2A6456AD9023B644443EA0843A3FBAE
:1003E8000295A4EB0E04AC42C846AE4656D353D091
:1003F80056B1B0EB080264EB0E0404FA07F7CA40E2
:10040800CC401743C6E9007418460021BDE8F087C0
:10041800C3F1200102FA03FC20FA01F225FA01F1E6
:100428009D402A434FEA1C471FFA8CFEB1FBF7F0A8
:1004380007FB1015110C41EA054100FB0EF58D4232
:1004480004FA03F408D91CEB010100F1FF382FD29C
:100458008D422DD902386144491B92B2B1FBF7F5A0
:1004680007FB151142EA014205FB0EF1914208D93A
:100478001CEB020205F1FF3816D2914214D9023D55
:100488006244521A45EA004138E73146304608E7E7
:100498003946E6E61046FBE64845A9D2B9EB02081C
:1004A80065EB0C0E013BA3E74546EAE72B4694E7CC
:1004B8004046D1E7D0467BE7023D624432E7084632
:1004C8000AE76444023842E7704700BF90B585B038
:1004D80000AF02F063F800F00DF802F04DF801F0FB
:1004E8004BFC034B3C460FCB84E80F00FEE700BFF4
:1004F8008035000880B500AF00F016F8094B1B687E
:10050800084A43F005031360064B1B68054A43F489
:10051800C0631360034B1B68024A43F48073136083
:1005280000BF80BD003C024080B594B000AF07F129
:10053800200330220021184602F0E6FF07F10C03E1
:1005480000221A605A609A60DA601A610023BB6060
:10055800284B1B6C274A43F080531364254B1B6CB4
:1005680003F08053BB60BB6800237B60224B1B6891
:10057800214A43F4804313601F4B1B6803F48043F4
:100588007B607B6801233B624FF480337B620223EC
:10059800BB634FF48003FB6319233B644FF4A873D8
:1005A8007B640223BB640723FB6407F1200318461E
:1005B80002F052FB0346002B01D000F01FF80F2376
:1005C800FB6002233B6100237B614FF4A053BB61B6
:1005D8004FF48053FB6107F10C030521184602F024
:1005E800B3FD0346002B01D000F008F800BF5037D8
:1005F800BD4680BD003802400070004080B400AFA6
:1006080072B600BFFEE7000080B483B000AF0023DD
:100618007B60104B5B6C0F4A43F4804353640D4B73
:100628005B6C03F480437B607B6800233B60094B71
:100638001B6C084A43F080531364064B1B6C03F091
:1006480080533B603B6800BF0C37BD465DF8047BB8
:10065800704700BF0038024080B584B000AFF86032
:10066800B9607A60FB68002B01D1012338E0FB6890
:1006780093F84930DBB2002B06D1FB68002283F8DF
:100688004820F86800F030F8FB681A68FB680833FF
:100698001946104600F028FCFB681868FB689B6840
:1006A8001A46B96800F08AFCFB685868FB689A68C3
:1006B800FB681B6B796800F0B7FCFB681B68FA687D
:1006C800926853F82210FB681B68FA68926841F038
:1006D800010143F82210FB68012283F84920002316
:1006E80018461037BD4680BD80B483B000AF78602F
:1006F80000BF0C37BD465DF8047B704780B582B0FB
:1007080000AF78607B68002B01D101233FE07B6854
:1007180093F83D30DBB2002B06D17B68002283F8CA
:100728003C20786800F037F87B68242283F83D2065
:100738007B681B68DA687B681B6822F40052DA6001
:10074800786800F033F97B681B681A697B681B6856
:1007580022F490421A617B681B685A697B681B689F
:1007680022F02A025A617B681B68DA687B681B687A
:1007780042F40052DA607B6800221A647B68202207
:1007880083F83D207B68202283F83E20002318460A
:100798000837BD4680BD80B483B000AF786000BF25
:1007A8000C37BD465DF8047B704780B58AB002AF50
:1007B800F860B9603B601346FB8000237B61FB68EF
:1007C80093F83D30DBB2202B7CD1BB68002B02D0E4
:1007D800FB88002B01D1012375E0FB6893F83C30BE
:1007E800012B01D102236EE0FB68012283F83C2033
:1007F800FB6800221A64FB68212283F83D2001F07F
:1008080033FF7861FB68FA889A84FB68FA88DA848F
:10081800FB689B68B3F5805F08D1FB681B69002BF8
:1008280004D10023FB61BB68BB6103E0BB68FB61CB
:100838000023BB61FB68002283F83C202AE03B6868
:1008480000937B6900228021F86800F040F8034695
:10085800002B01D0032336E0FB69002B0BD1BB69C9
:100868001B881A46FB681B68C2F308025A60BB69FA
:100878000233BB6107E0FB691A78FB681B685A60A2
:10088800FB690133FB61FB68DB8C9BB2013B9AB2CD
:10089800FB68DA84FB68DB8C9BB2002BCFD13B680A
:1008A80000937B6900224021F86800F010F80346A5
:1008B800002B01D0032306E0FB68202283F83D20AB
:1008C800002300E0022318462037BD4680BD80B5CE
:1008D80090B000AFF860B9603B601346FB7150E020
:1008E800BB6CB3F1FF3F4CD0BB6C002B07D001F0C1
:1008F800BBFE02463B68D31ABA6C9A4241D2FB68E7
:100908001B680C33BB62BB6A53E8003F7B627B6A9F
:1009180023F4D073FB63FB681B680C33FA6B7A63B0
:100928003B63396B7A6B41E80023FB62FB6A002B5F
:10093800E5D1FB681B6814337B617B6953E8003F92
:100948003B613B6923F00103BB63FB681B681433FD
:10095800BA6B3A62FB61F9693A6A41E80023BB6104
:10096800BB69002BE5D1FB68202283F83D20FB689A
:10097800202283F83E20FB68002283F83C200323D2
:100988000FE0FB681B681A68BB681340BA689A4294
:100998000CBF01230023DBB21A46FB799A429FD091
:1009A800002318464037BD4680BD00002DE9B04FF2
:1009B800C0B000AFC7F8F400D7F8F4301B681B6963
:1009C80023F44050D7F8F430D968D7F8F4301A68CF
:1009D80040EA01031361D7F8F4309A68D7F8F43085
:1009E8001B691A43D7F8F4305B691A43D7F8F43017
:1009F800DB691343C7F8F830D7F8F4301B68DB68B5
:100A080023F4164121F00C01D7F8F4301A68D7F80E
:100A1800F8300B43D360D7F8F4301B685B6923F4D4
:100A28004070D7F8F4309969D7F8F4301A6840EA7A
:100A380001035361D7F8F4301A688F4B9A4205D0F6
:100A4800D7F8F4301A688D4B9A4204D102F048FD69
:100A5800C7F8FC0003E002F02FFDC7F8FC00D7F848
:100A6800F430DB69B3F5004F40F00C81D7F8FC3067
:100A78000022C7F8E830C7F8EC20D7E93A45224603
:100A88002B469118B9655B41FB65D7E916232146CA
:100A980012EB0108294643EB01094FF000024FF021
:100AA80000034FEAC90343EA58734FEAC802904665
:100AB8009946234618EB0303C7F8E0302B4649EB69
:100AC8000303C7F8E430D7F8F4305B680022C7F8AE
:100AD800D830C7F8DC20D7E936120B46DB183B655F
:100AE800134642EB03037B65D7E91423D7E93801A2
:100AF800FFF76EFB02460B46614BA3FB02235B0923
:100B08001C01D7F8FC300022C7F8D030C7F8D42031
:100B1800D7E9348942464B469118B9645B41FB6476
:100B2800D7E91223414612EB010A494643EB010B70
:100B38004FF000024FF000034FEACB0343EA5A7329
:100B48004FEACA0292469B4643461AEB0303C7F88C
:100B5800C8304B464BEB0303C7F8CC30D7F8F4301A
:100B68005B680022C7F8C030C7F8C420D7E9301244
:100B78000B46DB183B64134642EB03037B64D7E95F
:100B88001023D7E93201FFF723FB02460B46114633
:100B98003B4BA3FB01235B09642202FB03F3CB1A43
:100BA800DB0003F13202364BA3FB02235B095B0037
:100BB80003F4F8731C44D7F8FC300022C7F8B830A7
:100BC800C7F8BC20D7E92E8942464B469118B9632D
:100BD8005B41FB63D7E90E23414651183963494607
:100BE8004B417B634FF000024FF00003D7E90CAB99
:100BF8005946CB00514643EA51735146CA00104644
:100C08001946034642469B18C7F8B0304B460A4679
:100C180042EB0303C7F8B430D7F8F4305B6800221E
:100C2800C7F8A830C7F8AC20D7E92A120B46DB185A
:100C3800BB62134642EB0303FB62D7E90A23D7E9F9
:100C48002C01FFF7C5FA02460B460D4BA3FB021316
:100C58005B09642101FB03F3D31ADB003233084A32
:100C6800A2FB03235B0903F00702D7F8F4301B68E3
:100C780022449A6006E100BF0010014000140140C0
:100C88001F85EB51D7F8FC300022C7F8A030C7F811
:100C9800A420D7E9288942464B46911839625B411E
:100CA8007B62D7E9082341465418494643EB0105BE
:100CB8004FF000024FF00003EB0043EA5473E200E8
:100CC80014461D464346E318C7F898304B4645EB93
:100CD8000303C7F89C30D7F8F4305B680022C7F8E4
:100CE8009030C7F894204FF000024FF00003D7E986
:100CF800244529468B00214643EA917321468A0000
:100D0800D7E92601FFF764FA02460B46604BA3FBBE
:100D180002235B091C01D7F8FC300022C7F8883091
:100D2800C7F88C20D7E9228942464B469118B96109
:100D38005B41FB61D7E906234146511839614946B1
:100D48004B417B614FF000024FF00003D7E904AB41
:100D58005946CB00514643EA51735146CA001046E2
:100D68001946034642469B18C7F880304B460A4648
:100D780042EB0303C7F88430D7F8F4305B680022ED
:100D8800BB67FA674FF000024FF00003D7E91E89EE
:100D980049468B00414643EA917341468A00D7E9A8
:100DA8002001FFF715FA02460B461146384BA3FB04
:100DB80001235B09642202FB03F3CB1A1B013233C4
:100DC800334AA2FB03235B0903F0F0031C44D7F862
:100DD800FC3000223B677A67D7E91C8942464B46BC
:100DE8009118B9605B41FB60D7E90223414651186D
:100DF800396049464B417B604FF000024FF00003D9
:100E0800D7E900AB5946CB00514643EA51735146E6
:100E1800CA0010461946034642469B18BB664B4615
:100E28000A4642EB0303FB66D7F8F4305B680022FE
:100E38003B667A664FF000024FF00003D7E9188945
:100E480049468B00414643EA917341468A00D7E9F7
:100E58001A01FFF7BDF902460B460D4BA3FB02131F
:100E68005B09642101FB03F3D31A1B013233084ADF
:100E7800A2FB03235B0903F00F02D7F8F4301B68C9
:100E880022449A6000BF07F58077BD46BDE8B08F61
:100E98001F85EB5180B400AFFEE780B400AFFEE7DA
:100EA80080B400AFFEE780B400AFFEE780B400AFC7
:100EB800FEE780B400AF00BFBD465DF8047B704715
:100EC80080B400AF00BFBD465DF8047B704780B4B6
:100ED80000AF00BFBD465DF8047B704780B500AF2A
:100EE80001F0AEFB00BF80BD80B487B000AF786072
:100EF80039603B681A687B6853F822303A68126890
:100F080023F001017B6843F822103B689B68082B9B
:100F180002D140237B6101E000237B613B685A6872
:100F28007B691A433B689B681A433B68DB681A4332
:100F38003B681B691A433B685B691A433B68DB697A
:100F48001A433B681B6A1A433B685B6A1A433B684F
:100F58009B6A1A433B68DB6A1A433B681B6B134363
:100F68003B613B689B693A6913433B613B68DB6BB8
:100F78003A6913433B61104BFB60FB6843F48063A1
:100F8800FB60FB6843F4E023FB603B681A687B68FE
:100F980053F82220FB68DB4302EA03013B681A6826
:100FA8003B6919437B6843F82210002318461C3715
:100FB800BD465DF8047B70477FFB080080B485B0B0
:100FC80000AFF860B9607A607B685A1CFB6853F818
:100FD800223003F04041BB681A68BB685B681B019C
:100FE8001A43BB689B681B021A43BB68DB681B0477
:100FF8001A43BB681B69013B1B051A43BB685B6945
:10100800023B1B061A43BB689B6913437A6801328B
:101018001943FB6843F82210002318461437BD46CD
:101028005DF8047B7047000080B485B000AFF860BD
:10103800B9607A603B603B68B3F5804F1DD1FB68AF
:101048007A6853F82220134B1340BA681168BA68BB
:10105800526812011143BA68926812021143BA68C1
:1010680092691143BA68D26812040A4343EA02013A
:10107800FB687A6843F8221005E0FB687A686FF02D
:10108800704143F82210002318461437BD465DF816
:10109800047B70470000F0CF80B400AF064BD3F854
:1010A8008830054A43F47003C2F8883000BFBD4653
:1010B8005DF8047B704700BF00ED00E0DFF834D036
:1010C8000D480E490E4A002302E0D458C450043398
:1010D800C4188C42F9D30B4A0B4C002301E013606F
:1010E8000432A242FBD3FFF7D7FF02F015FAFFF74D
:1010F800EDF97047000002200000002018000020D1
:10110800DC350008180000204C220020FEE780B5DE
:1011180000AF002000F004F803469BB2184680BDDB
:1011280080B582B000AF0346FB71FB79184600F02A
:10113800B9FD00F0C9FD034618460837BD4680BD15
:1011480080B582B000AF03460A46FB711346BB71F7
:10115800084B01221A70FB79184600F0A3FDBB79F1
:10116800184600F0C0FD034B00221A7000BF083774
:10117800BD4680BD3400002080B582B000AFC720D6
:10118800FFF7CEFF0346FB71FB79012B56D1882070
:1011980000F088FD00F0C8FD0A2000F0A4FD00F072
:1011A800D6FD892000F07EFD00F0BEFD022000F093
:1011B8009AFD00F0CCFD0A211020FFF7C1FF822123
:1011C8000420FFF7BDFF00F0C2FD3B211420FFF70C
:1011D800B7FF00211520FFF7B3FF01211620FFF705
:1011E800AFFF00211720FFF7ABFF05211820FFF7FD
:1011F800A7FF0F211920FFF7A3FF01211A20FFF7EE
:101208009FFF02211B20FFF79BFF00211C20FFF7F7
:1012180097FF07211D20FFF793FF00211E20FFF7EE
:101228008FFF09211F20FFF78BFF3D4B4FF488727A
:101238001A803C4B4FF4F0721A8055E0384B4FF44B
:10124800F0721A80374B4FF448721A80882000F0E9
:1012580029FD00F069FD0C2000F045FD00F077FD48
:10126800892000F01FFD00F05FFD022000F03BFD2B
:1012780000F06DFD0A211020FFF762FF8121042094
:10128800FFF75EFF00F063FD63211420FFF758FFAE
:1012980000211520FFF754FF03211620FFF750FF08
:1012A80003211720FFF74CFF0B211820FFF748FFF9
:1012B800DF211920FFF744FF01211A20FFF740FF23
:1012C8001F211B20FFF73CFF00211C20FFF738FFE0
:1012D80016211D20FFF734FF00211E20FFF730FFE5
:1012E80001211F20FFF72CFF0121C720FFF728FF4E
:1012F80080210120FFF724FF00214020FFF720FF75
:1013080000214120FFF71CFF054B1A88054B1B885D
:101318000021002000F008F800BF0837BD4680BD56
:101328000A0000200C00002090B585B000AF0446EC
:10133800084611461A462346FB800346BB800B46E7
:101348007B8013463B80FB88DBB219463020FFF7D1
:10135800F7FEFB881B0A9BB2DBB219463120FFF768
:10136800EFFEBB88DBB219463220FFF7E9FEBB88E7
:101378001B0A9BB2DBB219463320FFF7E1FE3A881D
:10138800FB8813449BB2013BFB81FB89DBB2194606
:101398003420FFF7D5FEFB891B0A9BB2DBB2194646
:1013A8003520FFF7CDFE7A88BB8813449BB2013BFA
:1013B800FB81FB89DBB219463620FFF7C1FEFB89AA
:1013C8001B0A9BB2DBB219463720FFF7B9FEBA8871
:1013D800FB881146184600F019F8084AFB88138064
:1013E800074ABB881380074A7B881380064A3B88D4
:1013F800138000BF1437BD4690BD00BF36000020E3
:1014080038000020040000200600002080B582B0CB
:1014180000AF03460A46FB801346BB80FB88DBB25D
:1014280019464620FFF78CFEFB881B0A9BB2DBB2ED
:1014380019464720FFF784FEBB88DBB219464820CF
:10144800FFF77EFEBB881B0A9BB2DBB21946492018
:10145800FFF776FE00BF0837BD4680BD90B585B062
:1014680002AF0346FB800D4B18880D4B19880D4BB6
:101478001A880D4B1B880024009400F017F80C20E4
:1014880000F06EF8FB88184600F078F800F09AF83B
:1014980000F0A8F800BF0C37BD4690BD360000200C
:1014A80038000020040000200600002090B583B01A
:1014B80000AF0446084611461A462346FB800346F9
:1014C800BB800B467B8013463B80FB88DBB219460A
:1014D8005820FFF735FEFB881B0A9BB2DBB2194682
:1014E8005920FFF72DFEBB88DBB219465A20FFF7BB
:1014F80027FE3B7E002B08D1BB881B0A9BB2DBB2C0
:1015080019465B20FFF71CFE0AE0BB881B0A9BB24A
:10151800DBB263F07F03DBB219465B20FFF710FEF6
:101528003B88DBB219465C20FFF70AFE3B881B0AA2
:101538009BB2DBB219465D20FFF702FE7B88DBB267
:1015480019465E20FFF7FCFD7B881B0A9BB2DBB2C5
:1015580019465F20FFF7F4FD00BF0C37BD4690BD6C
:1015680080B582B000AF0346FB71FB791946512064
:10157800FFF7E6FD00BF0837BD4680BD80B582B0E5
:1015880000AF0346FB80FB88DB0A9BB2DBB219463F
:101598006320FFF7D5FDFB885B11DBB203F03F0347
:1015A800DBB219466420FFF7CBFDFB88DBB203F002
:1015B8001F03DBB219466520FFF7C2FD00BF0837DD
:1015C800BD4680BD80B500AF054B01221A70502082
:1015D80000F068FB802000F086FB00BF80BD00BFE4
:1015E8003400002080B500AF00BF00F08DFB03463B
:1015F80003F04003402BF8D0024B00221A7000BFC2
:1016080080BD00BF3400002080B582B000AF034623
:10161800FB71FB79002B04D100218A20FFF790FD94
:1016280010E0FB79FF2B04D140218A20FFF788FDC9
:1016380008E08C218A20FFF783FDFB7919468B206F
:10164800FFF77EFD00BF0837BD4680BD80B500AFFF
:10165800002000F003F80346184680BD80B483B02C
:1016680000AF0346FB804FF0C043FA8892B21A805D
:10167800044B1B889BB218460C37BD465DF8047BAB
:10168800704700BF0000086080B483B000AF00233B
:10169800FB7102E0FB790133FB71FB791D2BF9D952
:1016A80000BF00BF0C37BD465DF8047B70470000E3
:1016B80080B500AF00222021084801F0B3FA0122CA
:1016C8001021064801F0AEFAFFF7DEFF01222021C3
:1016D800024801F0A7FA00BF80BD00BF001C02400D
:1016E80080B586B000AF00233B600F4B1B6B0E4AE2
:1016F80043F0800313630C4B1B6B03F080033B60C8
:101708003B681123BB600023FB6003233B6130234C
:101718007B603B1D1946054801F0E8F8FFF7C8FF54
:1017280000BF1837BD4680BD00380240001C02408B
:1017380080B400AF064B1B6903F48073002B01D102
:10174800012300E000231846BD465DF8047B70477E
:101758000020024080B400AF064B1B6903F400531D
:10176800002B01D1012300E000231846BD465DF897
:10177800047B70470008024080B400AF064B1B6929
:1017880003F40063002B01D1012300E00023184675
:10179800BD465DF8047B70470020024080B400AF6E
:1017A800064B1B6903F00403002B01D1012300E061
:1017B80000231846BD465DF8047B7047001C0240B4
:1017C80080B400AF064B1B6903F00803002B01D15E
:1017D800012300E000231846BD465DF8047B7047EE
:1017E800001C024080B400AF064B1B6903F4006381
:1017F800002B01D1012300E000231846BD465DF807
:10180800047B70470014024080B400AF064B1B698C
:1018180003F08003002B01D1012300E000231846C8
:10182800BD465DF8047B70470018024080B400AFE5
:10183800064B1B6903F40043002B01D1012300E090
:1018480000231846BD465DF8047B7047001C024023
:1018580080B500AFFFF76CFF0346002B06D0FFF7FB
:1018680079FF0346002B01D0012300E0002318462E
:1018780080BD80B500AFFFF75BFF0346002B06D0A5
:10188800FFF768FF0346002B01D0012300E0002387
:10189800184680BD80B500AF00F004F800F098F855
:1018A80000BF80BD80B483B000AF3D4B00229A7268
:1018B8003B4B0022DA723A4B00221A730023FB7169
:1018C80025E0FB79374A1B011344083364221A8048
:1018D800FB79344A1B011344043302221A70FB7942
:1018E800304A1B0113440A3300221A70FB792D4A2F
:1018F8001B0113440B3300221A70FB79294A1B0180
:1019080013440C3300221A70FB790133FB71FB7905
:10191800092BD6D9234B64221A87224B052283F838
:101928003B20204B6422A3F848201E4B052283F855
:101938004B201C4B6422A3F858201A4B052283F82D
:101948005B20184B6422A3F86820164B052283F805
:101958006B20144B144A1A60124B144A1A61114B2B
:10196800134A1A620F4B134A1A630E4B124A1A642F
:101978000C4B124A1A650B4B114A1A66094B114A4D
:101988001A67084B104AC3F88020064B0F4AC3F861
:10199800902000BF0C37BD465DF8047B704700BF40
:1019A800DC0000203C000020391700085D17000803
:1019B80081170008A5170008C9170008ED170008C7
:1019C8001118000835180008591800087B18000875
:1019D80080B58AB000AF00233B61494B1B6B484A76
:1019E80043F004031363464B1B6B03F004033B6192
:1019F8003B690023FB60424B1B6B414A43F02003C9
:101A080013633F4B1B6B03F02003FB60FB68002351
:101A1800BB603B4B1B6B3A4A43F080031363384B64
:101A28001B6B03F08003BB60BB6800237B60344BF7
:101A38001B6B334A43F480731363314B1B6B03F402
:101A480080737B607B6800233B602D4B1B6B2C4AAB
:101A580043F0400313632A4B1B6B03F040033B60C6
:101A68003B680023BB610023FB6102233B624FF408
:101A780080737B6107F114031946224800F036FF92
:101A88004FF400537B6107F1140319461E4800F018
:101A98002DFF4FF400637B6107F1140319461948C1
:101AA80000F024FF04237B6107F11403194617484B
:101AB80000F01CFF08237B6107F114031946134843
:101AC80000F014FF4FF400637B6107F1140319461B
:101AD8000F4800F00BFF80237B6107F114031946C0
:101AE8000C4800F003FF4FF400437B6107F1140337
:101AF8001946064800F0FAFE00BF2837BD4680BDEB
:101B0800003802400020024000080240001C024049
:101B1800001402400018024080B58AB000AF0023CC
:101B28003B61404B1B6B3F4A43F4807313633D4B4F
:101B38001B6B03F480733B613B690023FB60394BEB
:101B48001B6B384A43F004031363364B1B6B03F0DB
:101B58000403FB60FB680023BB60324B1B6B314AFC
:101B680043F0200313632F4B1B6B03F02003BB6070
:101B7800BB6800237B602B4B1B6B2A4A43F0800316
:101B88001363284B1B6B03F080037B607B68002387
:101B98003B60244B1B6B234A43F001031363214B27
:101BA8001B6B03F001033B603B68012000F042F827
:101BB800022000F03FF8032000F03CF8042000F079
:101BC80039F84FF480637B610123BB610023FB611B
:101BD80002233B6207F114031946134800F086FEFE
:101BE8004FF4C0737B610123BB610023FB610223B7
:101BF8003B6207F1140319460C4800F077FE0423F2
:101C08007B610123BB610023FB6102233B6207F177
:101C180014031946064800F069FE00BF2837BD4680
:101C280080BD00BF0038024000200240001402407E
:101C38000008024080B582B000AF0346FB71FB7913
:101C4800013BFB71FB79002B06D101224FF4806127
:101C5800114800F0E7FF1AE0FB79012B05D10122BA
:101C680080210E4800F0DEFF11E0FB79022B06D13F
:101C780001224FF48071094800F0D4FF07E0FB7996
:101C8800032B04D101220421054800F0CBFF00BF3B
:101C98000837BD4680BD00BF002002400014024046
:101CA8000008024080B483B000AF0346FB71054BC7
:101CB800FA7992B21A8000BF0C37BD465DF8047BF2
:101CC800704700BF0000086C80B483B000AF4FF0CD
:101CD800D8431B889BB2FB71FB7918460C37BD466D
:101CE8005DF8047B704780B483B000AF0346FB7196
:101CF8004FF0D843FA7992B21A8000BF0C37BD462C
:101D08005DF8047B7047000080B483B000AF054BDA
:101D18001B889BB2FB71FB7918460C37BD465DF8F2
:101D2800047B70470000086C80B483B000AF0023C8
:101D3800FB7102E0FB790133FB71FB79092BF9D9BF
:101D480000BF00BF0C37BD465DF8047B704780B408
:101D580083B000AF0023FB8002E0FB880133FB80E7
:101D6800FB8841F287329342F7D900BF00BF0C3796
:101D7800BD465DF8047B704780B582B000AF00F0C7
:101D88003FF800F0B5F8142000F07AFCFFF75EFC8D
:101D98000346FB80FB8845F2204293421FD0FB8814
:101DA8004BF2095293421AD0FB8845F220529342D3
:101DB80015D0FFF7ACF90346752B05D10D4B7522ED
:101DC8001A80FFF7D9F90AE00A4B44F201021A8097
:101DD800094BF0221A80094B4FF4C8721A801F2051
:101DE80000F0D2F8C82000F0E9F800BF0837BD4677
:101DF80080BD00BF080000200A0000200C00002061
:101E080080B58AB000AF00233B61354B9B6B344AE9
:101E180043F001039363324B9B6B03F001033B6177
:101E28003B690023FB602E4B1B6B2D4A43F00803D4
:101E380013632B4B1B6B03F00803FB60FB68002349
:101E4800BB60274B1B6B264A43F010031363244BDC
:101E58001B6B03F01003BB60BB6800237B60204B47
:101E68001B6B1F4A43F0400313631D4B1B6B03F0AE
:101E780040037B607B684CF233737B610223BB6158
:101E880003233B620023FB610C237B6207F11403ED
:101E98001946144800F02AFD4FF6B0737B6107F12C
:101EA80014031946104800F021FD4FF400537B61DC
:101EB8000C237B6207F1140319460A4800F016FD4B
:101EC8004FF480537B610C237B6207F1140319469E
:101ED800064800F00BFD00BF2837BD4680BD00BF97
:101EE80000380240000C0240001002400018024076
:101EF80080B5A2B000AF0423FB6100233B62062338
:101F08007B620123BB620023FB6200233B63002347
:101F18007B6304233B6000237B600823BB600023B2
:101F2800FB6000233B6100237B610023BB614FF012
:101F38002043BB63134BFB6306233B6400237B6492
:101F48001023FB6400233B650023FB6600237B65AD
:101F58000023BB650023FB654FF480533B660023D9
:101F68007B660023BB6600233B6707F11C023946EA
:101F780007F138031846FEF76FFB00BF8837BD46E8
:101F880080BD00BF040100A080B582B000AF034649
:101F9800FB80084B1B88752B04D1FB881846FFF77C
:101FA8005DFA02E0044800F0D5FA00BF0837BD46E4
:101FB80080BD00BF080000209035000880B582B0C1
:101FC80000AF0346FB71074AFB791370064B1B8869
:101FD800752B03D1FB791846FFF716FB00BF0837AE
:101FE800BD4680BDE90000200800002080B483B011
:101FF80000AF03463960FB7197F90730002B0ADB05
:102008003B68DAB20C4997F907301201D2B20B4497
:1020180083F800230AE03B68DAB20849FB7903F049
:102028000F03043B1201D2B20B441A7600BF0C37DF
:10203800BD465DF8047B704700E100E000ED00E07C
:1020480080B582B000AF78607B68013BB3F1807FD8
:1020580001D301230FE00A4A7B68013B53600F213B
:102068004FF0FF30FFF7C2FF054B00229A60044B88
:1020780007221A60002318460837BD4680BD00BFF6
:1020880010E000E080B582B000AF0023FB7129E0CA
:10209800FA791C4913465B0013449B000B44043334
:1020A80000221A60FA79174913465B0013449B0013
:1020B8000B44083300221A60FA79124913465B0070
:1020C80013449B000B44013300221A70FA790D491E
:1020D80013465B0013449B000B4400221A70FB79E3
:1020E8000133FB71FB79032BD2D9074B1B68074AD5
:1020F800A2FB03239B091846FFF7A2FF00BF08377E
:10210800BD4680BDEC00002000000020D34D6210C9
:1021180080B500AF00F01EF800F0F6F800F0D6F930
:1021280000BF80BD80B500AF01220421024800F045
:1021380079FD00BF80BD00BF0004024080B500AF3C
:1021480000220421024800F06DFD00BF80BD00BFE1
:102158000004024080B400AF594B5A4A1A60584BE9
:10216800594A5A60564B594A9A60554B4FF4806207
:102178009A81534B4FF48062DA81514B00221A82C4
:102188004F4B00225A824E4B0022DA824C4B0022DF
:102198001A834B4B00225A83494B00229A82484BA0
:1021A8000022DA61464B00221A62454B00225A622D
:1021B800474B484A1A60464B474A5A60444B474A7D
:1021C8009A60434B01229A81414B4FF40062DA81B5
:1021D8003F4B00221A823E4B00225A823C4B00227F
:1021E800DA823B4B00221A83394B00225A83384B40
:1021F80000229A82364B0022DA61354B00221A629D
:10220800334B00225A62364B364A1A60344B364AF0
:102218005A60334B354A9A60314B4FF480629A8149
:102228002F4B4FF48062DA812D4B00221A822C4BFF
:1022380000225A822A4B0022DA82294B00221A8372
:10224800274B00225A83264B00229A82244B284A85
:10225800DA61234B274A1A62214B00225A62264B25
:10226800264A1A60244B264A5A60234B254A9A600C
:10227800214B4FF480629A811F4B4FF48062DA81C0
:102288001D4B00221A821C4B00225A821A4B002234
:10229800DA82194B00221A83174B00225A83164BF5
:1022A80000229A82144B0022DA61134B00221A6230
:1022B800114B00225A6200BFBD465DF8047B70478F
:1022C8001C010020001001404401002044050020AA
:1022D80044090020004400406C09002070090020D7
:1022E8007011002000480040981100209815002027
:1022F8002D210008452100089819002000140140EC
:10230800C0190020C01D002080B58AB000AF00238E
:102318003B61684B1B6B674A43F001031363654BD2
:102328001B6B03F001033B613B690023FB60614BBE
:102338005B6C604A43F0100353645E4B5B6C03F0C4
:102348001003FB60FB684FF400737B610223BB61E1
:1023580002233B620023FB6107237B6207F114031E
:102368001946554800F0C2FA4FF480637B61022396
:10237800BB6102233B620023FB6107237B6207F1F9
:10238800140319464C4800F0B1FA4C4B4C4A1A60F9
:102398004A4B4FF4E1325A60484B00229A60474B4F
:1023A8000022DA60454B00221A61444B00229A61F0
:1023B800424B0C225A614148FEF7A0F93F4B1B687B
:1023C800DA683E4B1B6842F02002DA603B4B1B6820
:1023D800DA683A4B1B6842F40052DA60374B1B68E4
:1023E8006FF040021A600023BB60324B1B6B314A0E
:1023F80043F0010313632F4B1B6B03F00103BB6016
:10240800BB6800237B602B4B1B6C2A4A43F40033C8
:102418001364284B1B6C03F400337B607B68022336
:10242800BB6102233B620023FB6107237B62082315
:102438007B610223BB6102233B620023FB6107230C
:102448007B6207F1140319461B4800F04FFA1D4B35
:102458001D4A1A601B4B4FF416525A60194B002242
:102468009A60184B0022DA60164B00221A61154B4D
:1024780000229A61134B04225A611248FEF73EF972
:10248800104B1B68DA680F4B1B6842F02002DA60B9
:102498000C4B1B68DA680B4B1B6842F40052DA607D
:1024A800084B1B686FF040021A6000BF2837BD4612
:1024B80080BD00BF0038024000000240C02100205B
:1024C80000100140042200200044004080B500AF05
:1024D800072000F0C9F900220021252000F0CFF9DB
:1024E800252000F0E8F901220021262000F0C7F994
:1024F800262000F0E0F902220021272000F0BFF991
:10250800272000F0D8F905220021472000F0B7F96C
:10251800472000F0D0F900BF80BD000080B584B02E
:1025280000AF78600B467B807A884FF47A737968BD
:102538000748FEF73AF90346FB73054B1B686FF033
:1025480040021A60FB7B18461037BD4680BD00BFAD
:10255800C021002080B582B000AF78607868FDF7B0
:102568002FFE03469BB219467868FFF7D7FF03464C
:1025780018460837BD4680BD80B500AFFFF7C8FDD7
:10258800FFF7CAFAFFF786F9FFF7AAF8FFF77AFD0F
:10259800142000F075F800BF80BD000080B500AFC2
:1025A8000E4B1B680D4A43F4007313600B4B1B68FA
:1025B8000A4A43F480631360084B1B68074A43F4D4
:1025C80080731360032000F04FF90F2000F008F823
:1025D800FEF71AF80023184680BD00BF003C0240F1
:1025E80080B582B000AF7860124B1A68124B1B7826
:1025F80019464FF47A73B3FBF1F3B2FBF3F31846C1
:1026080000F067F90346002B01D001230EE07B6838
:102618000F2B0AD8002279684FF0FF3000F02FF90D
:10262800064A7B681360002300E001231846083738
:10263800BD4680BD000000201400002010000020CE
:1026480080B400AF064B1B781A46064B1B68134430
:10265800044A136000BFBD465DF8047B704700BFA5
:10266800140000204822002080B400AF034B1B68F0
:102678001846BD465DF8047B704700BF482200201D
:1026880080B584B000AF7860FFF7EEFFB8607B6874
:10269800FB60FB68B3F1FF3F05D00A4B1B781A4675
:1026A800FB681344FB6000BFFFF7DEFF0246BB6810
:1026B800D31AFA689A42F7D800BF00BF1037BD4650
:1026C80080BD00BF1400002080B485B000AF7860E2
:1026D8007B6803F00703FB600C4BDB68BB60BA68E0
:1026E8004FF6FF031340BB60FB681A02BB68134335
:1026F80043F0BF6343F40033BB60044ABB68D36054
:1027080000BF1437BD465DF8047B704700ED00E05C
:1027180080B400AF044BDB681B0A03F007031846BC
:10272800BD465DF8047B704700ED00E080B483B0DF
:1027380000AF0346FB7197F90730002B0BDBFB79E1
:1027480003F01F02074997F907305B09012000FAD7
:1027580002F241F8232000BF0C37BD465DF8047B28
:10276800704700BF00E100E080B483B000AF0346CB
:102778003960FB7197F90730002B0ADB3B68DAB246
:102788000C4997F907301201D2B20B4483F80023A1
:102798000AE03B68DAB20849FB7903F00F03043B0F
:1027A8001201D2B20B441A7600BF0C37BD465DF851
:1027B800047B704700E100E000ED00E080B489B0E0
:1027C80000AFF860B9607A60FB6803F00703FB614B
:1027D800FB69C3F10703042B28BF0423BB61FB6912
:1027E8000433062B02D9FB69033B00E000237B611D
:1027F8004FF0FF32BB6902FA03F3DA43BB681A40B1
:102808007B699A404FF0FF317B6901FA03F3D943A2
:102818007B680B40134318462437BD465DF8047B9C
:102828007047000080B582B000AF78607B68013BDC
:10283800B3F1807F01D301230FE00A4A7B68013B93
:1028480053600F214FF0FF30FFF78EFF054B00223A
:102858009A60044B07221A60002318460837BD46C1
:1028680080BD00BF10E000E080B582B000AF7860A6
:102878007868FFF729FF00BF0837BD4680BD80B5DF
:1028880086B000AF0346B9607A60FB7300237B61B2
:10289800FFF73EFF78617A68B9687869FFF78EFFBD
:1028A800024697F90F3011461846FFF75DFF00BF43
:1028B8001837BD4680BD80B582B000AF0346FB71B6
:1028C80097F907301846FFF731FF00BF0837BD46B4
:1028D80080BD80B582B000AF78607868FFF7A2FF4E
:1028E800034618460837BD4680BD000080B489B04D
:1028F80000AF7860396000237B6100233B610023CF
:10290800BB610023FB616BE10122FB6902FA03F35F
:102918007B613B681B687A6913403B613A697B6954
:102928009A4240F05A813B685B6803F00303012B2D
:1029380005D03B685B6803F00303022B30D17B684A
:102948009B68BB61FB695B00032202FA03F3DB436C
:10295800BA691340BB613B68DA68FB695B0002FA3D
:1029680003F3BA691343BB617B68BA699A607B68F1
:102978005B68BB610122FB6902FA03F3DB43BA69B6
:102988001340BB613B685B681B0903F00102FB69EC
:1029980002FA03F3BA691343BB617B68BA695A60E8
:1029A8003B685B6803F00303032B17D07B68DB6885
:1029B800BB61FB695B00032202FA03F3DB43BA69DC
:1029C8001340BB613B689A68FB695B0002FA03F33A
:1029D800BA691343BB617B68BA69DA603B685B68B4
:1029E80003F00303022B23D1FB69DA087B68083262
:1029F80053F82230BB61FB6903F007039B000F22E9
:102A080002FA03F3DB43BA691340BB613B681A69F6
:102A1800FB6903F007039B0002FA03F3BA69134347
:102A2800BB61FB69DA087B680832B96943F8221090
:102A38007B681B68BB61FB695B00032202FA03F336
:102A4800DB43BA691340BB613B685B6803F0030270
:102A5800FB695B0002FA03F3BA691343BB617B6845
:102A6800BA691A603B685B6803F44033002B00F0D6
:102A7800B4800023FB60604B5B6C5F4A43F4804387
:102A880053645D4B5B6C03F48043FB60FB685B4AFB
:102A9800FB699B08023352F82330BB61FB6903F0E2
:102AA80003039B000F2202FA03F3DB43BA691340C6
:102AB800BB617B68524A93422BD07B68514A934250
:102AC80025D07B68504A93421FD07B684F4A934277
:102AD80019D07B684E4A934213D07B684D4A934283
:102AE8000DD07B684C4A934207D07B684B4A93428F
:102AF80001D107230EE008230CE006230AE0052392
:102B080008E0042306E0032304E0022302E0012393
:102B180000E00023FA6902F0030292009340BA69C8
:102B28001343BB613549FB699B080233BA6941F815
:102B380023203B4B9B68BB613B69DB43BA6913406D
:102B4800BB613B685B6803F48013002B03D0BA6950
:102B58003B691343BB61324ABB699360304BDB6806
:102B6800BB613B69DB43BA691340BB613B685B6887
:102B780003F40013002B03D0BA693B691343BB610C
:102B8800274ABB69D360264B5B68BB613B69DB4363
:102B9800BA691340BB613B685B6803F40033002BE0
:102BA80003D0BA693B691343BB611D4ABB695360D3
:102BB8001B4B1B68BB613B69DB43BA691340BB61B4
:102BC8003B685B6803F48033002B03D0BA693B6928
:102BD8001343BB61124ABB691360FB690133FB6194
:102BE800FB690F2B7FF690AE00BF00BF2437BD46B0
:102BF8005DF8047B704700BF003802400038014090
:102C0800000002400004024000080240000C02409C
:102C1800001002400014024000180240001C02404C
:102C2800003C014080B483B000AF78600B467B80E5
:102C380013467B707B78002B03D07A887B689A6177
:102C480003E07B881A047B689A6100BF0C37BD4695
:102C58005DF8047B7047000080B586B000AF7860EF
:102C68007B68002B01D1012367E27B681B6803F0B6
:102C78000103002B75D0884B9B6803F00C03042BD1
:102C88000CD0854B9B6803F00C03082B12D1824BA8
:102C98005B6803F48003B3F5800F0BD17E4B1B6890
:102CA80003F40033002B5BD07B685B68002B57D1A3
:102CB800012342E27B685B68B3F5803F06D1764B1F
:102CC8001B68754A43F4803313601DE07B685B68BA
:102CD800B3F5A02F0CD1704B1B686F4A43F48023C7
:102CE80013606D4B1B686C4A43F4803313600BE030
:102CF800694B1B68684A23F480331360664B1B6872
:102D0800654A23F4802313607B685B68002B13D02B
:102D1800FFF7AAFC386108E0FFF7A6FC02463B690A
:102D2800D31A642B01D9032307E25B4B1B6803F416
:102D38000033002BF0D014E0FFF796FC386108E070
:102D4800FFF792FC02463B69D31A642B01D903238F
:102D5800F3E1514B1B6803F40033002BF0D100E082
:102D680000BF7B681B6803F00203002B63D04A4B4B
:102D78009B6803F00C03002B0BD0474B9B6803F0B8
:102D88000C03082B1CD1444B5B6803F48003002B15
:102D980016D1414B1B6803F00203002B05D07B685A
:102DA800DB68012B01D00123C7E13B4B1B6823F0F3
:102DB800F8027B681B69DB00374913430B603AE074
:102DC8007B68DB68002B20D0344B01221A60FFF7A8
:102DD8004BFC386108E0FFF747FC02463B69D31A11
:102DE800022B01D90323A8E12B4B1B6803F0020334
:102DF800002BF0D0284B1B6823F0F8027B681B6976
:102E0800DB00254913430B6015E0244B00221A60B0
:102E1800FFF72AFC386108E0FFF726FC02463B6909
:102E2800D31A022B01D9032387E11B4B1B6803F03C
:102E38000203002BF0D17B681B6803F00803002B0A
:102E480036D07B685B69002B16D0154B01221A60BF
:102E5800FFF70AFC386108E0FFF706FC02463B6909
:102E6800D31A022B01D9032367E10B4B5B6F03F0E5
:102E78000203002BF0D01BE0094B00221A60FFF779
:102E8800F3FB38610EE0FFF7EFFB02463B69D31A0C
:102E9800022B07D9032350E10038024000004742C3
:102EA800800E4742884B5B6F03F00203002BEAD188
:102EB8007B681B6803F00403002B00F09780002355
:102EC800FB75814B1B6C03F08053002B0FD1002343
:102ED800BB607D4B1B6C7C4A43F0805313647A4B78
:102EE8001B6C03F08053BB60BB680123FB75774BF9
:102EF8001B6803F48073002B18D1744B1B68734A4A
:102F080043F480731360FFF7AFFB386108E0FFF705
:102F1800ABFB02463B69D31A022B01D903230CE110
:102F28006A4B1B6803F48073002BF0D07B689B68A6
:102F3800012B06D1644B1B6F634A43F001031367EF
:102F48001CE07B689B68052B0CD15F4B1B6F5E4AAE
:102F580043F0040313675C4B1B6F5B4A43F00103A8
:102F680013670BE0584B1B6F574A23F00103136795
:102F7800554B1B6F544A23F0040313677B689B6807
:102F8800002B15D0FFF770FB38610AE0FFF76CFBE8
:102F980002463B69D31A41F28832934201D903238E
:102FA800CBE0494B1B6F03F00203002BEED014E07B
:102FB800FFF75AFB38610AE0FFF756FB02463B6908
:102FC800D31A41F28832934201D90323B5E03E4B2C
:102FD8001B6F03F00203002BEED1FB7D012B05D103
:102FE800394B1B6C384A23F0805313647B689B6908
:102FF800002B00F0A180344B9B6803F00C03082BD6
:103008005CD07B689B69022B41D1314B00221A604E
:10301800FFF72AFB386108E0FFF726FB02463B6909
:10302800D31A022B01D9032387E0274B1B6803F02F
:103038000073002BF0D17B68DA697B681B6A1A433E
:103048007B685B6A9B011A437B689B6A5B08013B50
:103058001B041A437B68DB6A1B061B4913434B603E
:103068001B4B01221A60FFF7FFFA386108E0FFF7EF
:10307800FBFA02463B69D31A022B01D903235CE011
:10308800114B1B6803F00073002BF0D054E0104B79
:1030980000221A60FFF7E8FA386108E0FFF7E4FA5F
:1030A80002463B69D31A022B01D9032345E0064B9C
:1030B8001B6803F00073002BF0D13DE07B689B692F
:1030C800012B07D1012338E000380240007000408E
:1030D800600047421B4B5B68FB607B689B69012B68
:1030E80028D0FB6803F480027B68DB699A4221D10F
:1030F800FB6803F03F027B681B6A9A421AD1FA68A0
:1031080047F6C07313407A68526A9201934211D10C
:10311800FB6803F440327B689B6A5B08013B1B0435
:103128009A4207D1FB6803F070627B68DB6A1B0672
:103138009A4201D0012300E0002318461837BD4603
:1031480080BD00BF0038024080B584B000AF786011
:1031580039607B68002B01D10123CCE0684B1B68E8
:1031680003F007033A689A420CD9654B3A68D2B221
:103178001A70634B1B6803F007033A689A4201D040
:103188000123B8E07B681B6803F00203002B20D002
:103198007B681B6803F00403002B05D0594B9B6820
:1031A800584A43F4E05393607B681B6803F00803B4
:1031B800002B05D0534B9B68524A43F460439360FD
:1031C800504B9B6823F0F0027B689B684D49134382
:1031D8008B607B681B6803F00103002B44D07B687D
:1031E8005B68012B07D1474B1B6803F40033002BA6
:1031F80019D101237FE07B685B68022B03D07B68D1
:103208005B68032B07D13F4B1B6803F00073002B4F
:1032180009D101236FE03B4B1B6803F00203002B2D
:1032280001D1012367E0374B9B6823F003027B68D9
:103238005B68344913438B60FFF716FAF8600AE0BD
:10324800FFF712FA0246FB68D31A41F2883293421A
:1032580001D903234FE02B4B9B6803F00C027B68DA
:103268005B689B009A42EBD1254B1B6803F0070370
:103278003A689A420CD2224B3A68D2B21A70204B62
:103288001B6803F007033A689A4201D0012332E031
:103298007B681B6803F00403002B08D0194B9B685C
:1032A80023F4E0527B68DB68164913438B607B6824
:1032B8001B6803F00803002B09D0124B9B6823F40A
:1032C80060427B681B69DB000E4913438B6000F08A
:1032D80021F802460B4B9B681B0903F00F030A49B0
:1032E800CB5C22FA03F3094A1360094B1B681846A2
:1032F800FFF776F9002318461037BD4680BD00BF9A
:10330800003C024000380240B435000800000020AC
:10331800100000202DE9B04F90B000AF00237B6370
:103328000023FB6300233B630023BB63594B9B686B
:1033380003F00C03082B0DD0082B00F2A180002B02
:1033480002D0042B03D09BE0534BBB639BE0534B51
:10335800BB6398E04F4B5B6803F03F037B634D4BC7
:103368005B6803F48003002B28D04A4B5B689B09F9
:1033780000223B627A623B6AC3F308000021474B94
:1033880003FB01F2002300FB03F31344434AA0FBB1
:103398000212FA620A46BA62FA6A1344FB627B6B4B
:1033A8000022BB61FA61D7E90623D7E90A01FCF7D5
:1033B8000FFF02460B461346FB6353E0354B5B6831
:1033C8009B0900223B617A613B69C3F3080A4FF00D
:1033D800000B52465B464FF000004FF000015901C8
:1033E80041EAD261500102460B46B2EB0A0863EB90
:1033F8000B094FF000024FF000034FEA891343EA2C
:1034080098634FEA8812B2EB080463EB09054FF0A2
:1034180000024FF00003EB0043EA5473E200144645
:103428001D4614EB0A033B6045EB0B037B604FF032
:1034380000024FF00003D7E9004529468B022146D8
:1034480043EA915321468A02104619467B6B0022B3
:10345800BB60FA60D7E90223FCF7BAFE02460B46C6
:103468001346FB630B4B5B681B0C03F00303013330
:103478005B003B63FA6B3B6BB2FBF3F3BB6302E0AD
:10348800054BBB6300BFBB6B18464037BD46BDE864
:10349800B08F00BF003802400024F40040787D015E
:1034A80080B400AF034B1B681846BD465DF8047B2B
:1034B800704700BF0000002080B500AFFFF7F0FFA5
:1034C8000246054B9B689B0A03F007030349CB5C44
:1034D80022FA03F3184680BD00380240C4350008BC
:1034E80080B500AFFFF7DCFF0246054B9B685B0B1E
:1034F80003F007030349CB5C22FA03F3184680BDA7
:1035080000380240C435000802440346934200D103
:10351800704703F8011BF9E770B50D4D0D4C641B9E
:10352800A4100026A64209D10B4D0C4C00F018F847
:10353800641BA4100026A64205D170BD55F8043BB3
:1035480098470136EEE755F8043B98470136F2E70D
:10355800D4350008D4350008D4350008D83500081B
:10356800F8B500BFF8BC08BC9E467047F8B500BF68
:08357800F8BC08BC9E46704738
:1035800048656C6C6F2C205541525431210D0A0056
:103590004C434420436F6E74726F6C6C657220698B
:1035A00073205346443534323020636F6C6F720D94
:1035B0000A000000000000000000000001020304F7
:0C35C000060708090000000001020304D7
:0835CC003CCCFF7F0100000070
:0435D400AD0100083D
:0435D800890100085D
:1035DC00007A030A1001E0010140F00090010000A4
:0835EC001000000001000000C6
:04000005080010C51A
:00000001FF
