:020000040800F2
:1000000000000220751500089114000897140008DC
:100010009D140008A3140008A914000800000000A3
:10002000000000000000000000000000AF14000805
:10003000BD14000800000000CB140008D91400080B
:10004000C5150008C5150008C5150008C515000828
:10005000C5150008C5150008C5150008C515000818
:10006000C5150008C5150008C5150008C515000808
:10007000C5150008C5150008C5150008C5150008F8
:10008000C5150008C5150008C5150008C5150008E8
:10009000C5150008C5150008C5150008C5150008D8
:1000A000C5150008C5150008C5150008C5150008C8
:1000B000C5150008C5150008C5150008C5150008B8
:1000C000C5150008C5150008C5150008C5150008A8
:1000D000C5150008C5150008C5150008C515000898
:1000E000C5150008C5150008C5150008C515000888
:1000F000C5150008C5150008C5150008C515000878
:10010000C5150008C5150008C5150008C515000867
:10011000C5150008C5150008C5150008C515000857
:10012000C5150008C5150008C5150008C515000847
:10013000C5150008C5150008C5150008C515000837
:10014000C5150008C5150008C5150008C515000827
:10015000C5150008C5150008C5150008C515000817
:10016000C5150008C5150008C5150008C515000807
:10017000C5150008C5150008C515000800000000D9
:08018000C5150008C5150008B3
:1001900010B5054C237833B9044B13B10448AFF3C1
:1001A00000800123237010BD5C00002000000000CF
:1001B0009836000808B5034B1BB103490348AFF359
:1001C000008008BD00000000600000209836000894
:1001D000034613F8012B002AFBD1181A0138704787
:1001E00001F0FF01102A2BDB10F0070F08D010F8E8
:1001F000013B013A8B422DD010F0070F42B3F6D1EC
:10020000F0B441EA012141EA014122F007047FF004
:1002100000070023F0E80256083C85EA010586EA5B
:10022000010685FA47F5A3FA87F586FA47F6A5FA97
:1002300087F68EB9EED1F0BC01F0FF0102F00702A3
:1002400032B110F8013B013A83EA010313B1F8D14E
:100250000020704701387047002D06BF354603382F
:10026000073815F0010F07D1013015F4807F02BF68
:10027000013015F4C03F0130F0BC0138704700BFB9
:1002800053B94AB9002908BF00281CBF4FF0FF31FD
:100290004FF0FF3000F070B9ADF1080C6DE904CEFD
:1002A00000F006F8DDF804E0DDE9022304B0704751
:1002B0002DE9F047089E0D4604460F46002B4AD113
:1002C0008A42944665D9B2FA82F343B102FA03FC3A
:1002D000C3F120029F4020FA02F217439C404FEAEC
:1002E0001C4E1FFA8CF5B7FBFEF1220C0EFB1177AA
:1002F00042EA074201FB05F090420AD91CEB0202D8
:1003000001F1FF3780F01C81904240F219810239DF
:100310006244121AA4B2B2FBFEF00EFB102244EAB1
:10032000024400FB05F5A5420AD91CEB040400F1C8
:10033000FF3280F00781A54240F204816444023814
:1003400040EA0140641B00211EB1DC400023C6E9E5
:100350000043BDE8F0878B4208D9002E00F0ED8005
:100360000021C6E900050846BDE8F087B3FA83F12D
:10037000002949D1AB4202D3824200F2F880841AAC
:1003800065EB030201201746002EE2D0C6E90047C4
:10039000DFE702B9FFDEB2FA82F3002B40F0908073
:1003A0008A1A4FEA1C471FFA8CFE0121B2FBF7F5AF
:1003B00007FB1520220C42EA00420EFB05F090429A
:1003C00008D91CEB020205F1FF3802D2904200F27C
:1003D000CB804546121AA4B2B2FBF7F007FB1022FD
:1003E00044EA02440EFB00FEA64508D91CEB0404B7
:1003F00000F1FF3202D2A64500F2BB801046A4EB0A
:100400000E0440EA05409FE7C1F120078B4022FA25
:1004100007FC4CEA030C05FA01F420FA07F3FD404F
:100420004FEA1C492343B5FBF9F81FFA8CFE09FB80
:1004300018551C0C44EA054408FB0EF5A54202FAC7
:1004400001F200FA01F00BD91CEB040408F1FF3AA9
:1004500080F08880A54240F28580A8F102086444BB
:10046000641B9DB2B4FBF9F309FB134445EA044451
:1004700003FB0EFEA64508D91CEB040403F1FF356F
:100480006CD2A6456AD9023B644443EA0843A3FB05
:100490000295A4EB0E04AC42C846AE4656D353D0E8
:1004A00056B1B0EB080264EB0E0404FA07F7CA4039
:1004B000CC401743C6E9007418460021BDE8F08718
:1004C000C3F1200102FA03FC20FA01F225FA01F13E
:1004D0009D402A434FEA1C471FFA8CFEB1FBF7F000
:1004E00007FB1015110C41EA054100FB0EF58D428A
:1004F00004FA03F408D91CEB010100F1FF382FD2F4
:100500008D422DD902386144491B92B2B1FBF7F5F7
:1005100007FB151142EA014205FB0EF1914208D991
:100520001CEB020205F1FF3816D2914214D9023DAC
:100530006244521A45EA004138E73146304608E73E
:100540003946E6E61046FBE64845A9D2B9EB020873
:1005500065EB0C0E013BA3E74546EAE72B4694E723
:100560004046D1E7D0467BE7023D624432E7084689
:100570000AE76444023842E7704700BF80B582B0A2
:1005800000AF01F02FFC00F005F801F01FFC002384
:10059000FB80FEE780B500AF00F016F8094B1B6842
:1005A000084A43F005031360064B1B68054A43F4F1
:1005B000C0631360034B1B68024A43F480731360EB
:1005C00000BF80BD003C024080B594B000AF07F191
:1005D000200330220021184602F0DAFB07F10C0359
:1005E00000221A605A609A60DA601A610023BB60C8
:1005F000284B1B6C274A43F080531364254B1B6C1C
:1006000003F08053BB60BB6800237B60224B1B68F8
:10061000214A43F4804313601F4B1B6803F480435B
:100620007B607B6801233B624FF480337B62022353
:10063000BB634FF48003FB6319233B644FF4A8733F
:100640007B640223BB640723FB6407F12003184685
:1006500001F026FF0346002B01D000F01FF80F2306
:10066000FB6002233B6100237B614FF4A053BB611D
:100670004FF48053FB6107F10C030521184602F08B
:1006800087F90346002B01D000F008F800BF50376F
:10069000BD4680BD003802400070004080B400AF0D
:1006A00072B600BFFEE7000080B483B000AF002345
:1006B0007B60104B5B6C0F4A43F4804353640D4BDB
:1006C0005B6C03F480437B607B6800233B60094BD9
:1006D0001B6C084A43F080531364064B1B6C03F0F9
:1006E00080533B603B6800BF0C37BD465DF8047B20
:1006F000704700BF0038024080B582B000AF78601C
:100700007B68002B01D101237BE07B685B6A002BB7
:1007100008D17B685B68B3F5827F09D07B680022D3
:10072000DA6105E07B6800221A617B6800225A6169
:100730007B6800229A627B6893F85130DBB2002B11
:1007400006D17B68002283F85020786800F05DF8BD
:100750007B68022283F851207B681B681A687B68DB
:100760001B6822F040021A607B685B6803F48272A7
:100770007B689B6803F404431A437B68DB6803F4DB
:1007800000631A437B681B6903F002031A437B680A
:100790005B6903F001031A437B689B6903F40073F0
:1007A0001A437B68DB6903F038031A437B681B6AD2
:1007B00003F0800342EA03017B689B6A03F4005262
:1007C0007B681B680A431A607B689B691B0C03F0FB
:1007D00004017B685B6A03F010027B681B680A43B4
:1007E0005A607B681B68DA697B681B6822F40062C8
:1007F000DA617B6800225A657B68012283F8512008
:10080000002318460837BD4680BD80B483B000AFD2
:10081000786000BF0C37BD465DF8047B704780B53B
:100820008CB000AFF860B9607A607B800123FB6216
:10083000002387F82B30FB6893F85030012B01D14F
:1008400002238AE1FB68012283F8502001F030FB8B
:100850007862FB6893F8513087F82330FB685B6857
:10086000FB617B887B8397F82330012B0FD0FB69DA
:10087000B3F5827F07D1FB689B68002B03D197F803
:100880002330042B03D0022387F82B305BE1BB68B5
:10089000002B05D07B68002B02D07B88002B03D176
:1008A000012387F82B304EE1FB6893F85130DBB21F
:1008B000042B03D0FB68052283F85120FB6800223B
:1008C0005A65FB687A689A63FB687A88DA87FB68FE
:1008D0007A889A87FB68BA681A63FB687A88DA862E
:1008E000FB687A889A86FB6800221A64FB680022FB
:1008F0005A64FB681B681B6803F04003402B07D059
:10090000FB681B681A68FB681B6842F040021A60AB
:10091000FB68DB68B3F5006F78D1FB685B68002B80
:1009200002D07B8B012B66D1FB681B6B1A88FB689E
:100930001B68DA60FB681B6B9A1CFB681A63FB6818
:10094000DB8E9BB2013B9AB2FB68DA8653E0FB6810
:100950001B689B6803F00203022B1BD1FB68DB8E34
:100960009BB2002B16D0FB6A012B13D1FB681B6BCB
:100970001A88FB681B68DA60FB681B6B9A1CFB68B3
:100980001A63FB68DB8E9BB2013B9AB2FB68DA8686
:100990000023FB62FB681B689B6803F00103012BCB
:1009A00019D1FB68DB8F9BB2002B14D0FB681B684E
:1009B000DA68FB689B6B92B21A80FB689B6B9A1C8F
:1009C000FB689A63FB68DB8F9BB2013B9AB2FB68C2
:1009D000DA870123FB6201F06BFA02467B6AD31AC5
:1009E000BA6B9A4207D8BB6BB3F1FF3F03D0032326
:1009F00087F82B30A7E0FB68DB8E9BB2002BA6D1DB
:100A0000FB68DB8F9BB2002BA1D17CE0FB685B68AD
:100A1000002B02D07B8B012B6BD1FB681A6BFB6820
:100A20001B680C3312781A70FB681B6B5A1CFB682E
:100A30001A63FB68DB8E9BB2013B9AB2FB68DA86D5
:100A400057E0FB681B689B6803F00203022B1CD174
:100A5000FB68DB8E9BB2002B17D0FB6A012B14D1F5
:100A6000FB681A6BFB681B680C3312781A70FB6802
:100A70001B6B5A1CFB681A63FB68DB8E9BB2013B45
:100A80009AB2FB68DA860023FB62FB681B689B68EE
:100A900003F00103012B19D1FB68DB8F9BB2002B04
:100AA00014D0FB681B68DA68FB689B6BD2B21A70C3
:100AB000FB689B6B5A1CFB689A63FB68DB8F9BB2DD
:100AC000013B9AB2FB68DA870123FB6201F0F0F97F
:100AD00002467B6AD31ABA6B9A4203D8BB6BB3F156
:100AE000FF3F02D1BB6B002B03D1032387F82B30D0
:100AF00029E0FB68DB8E9BB2002BA2D1FB68DB8F69
:100B00009BB2002B9DD17A6AB96BF86800F0B2F8FD
:100B10000346002B06D0012387F82B30FB682022E8
:100B20005A6510E0FB689B68002B0BD100237B61AA
:100B3000FB681B68DB687B61FB681B689B687B61EB
:100B40007B6900E000BFFB68012283F85120FB684D
:100B5000002283F8502097F82B3018463037BD46D6
:100B600080BD000080B588B000AFF860B9603B6020
:100B70001346FB7101F09CF90246BB6A9B1A3A6866
:100B80001344FB6101F094F9B861394B1B685B01B8
:100B90001B0DFA6902FB03F37B6154E03B68B3F180
:100BA000FF3F50D001F084F90246BB69D31AFA69BD
:100BB0009A4202D9FB69002B3DD1FB681B685A6839
:100BC000FB681B6822F0E0025A60FB685B68B3F5C3
:100BD000827F11D1FB689B68B3F5004F04D0FB689E
:100BE0009B68B3F5806F07D1FB681B681A68FB68C8
:100BF0001B6822F040021A60FB689B6AB3F5005F35
:100C00000FD1FB681B681A68FB681B6822F400524E
:100C10001A60FB681B681A68FB681B6842F4005284
:100C20001A60FB68012283F85120FB68002283F8D8
:100C30005020032317E07B69002B01D10023FB61C7
:100C40007B69013B7B61FB681B689A68BB6813404A
:100C5000BA689A420CBF01230023DBB21A46FB7923
:100C60009A429BD1002318462037BD4680BD00BF65
:100C70000000002080B588B002AFF860B9607A60EB
:100C80001B4B1B681B4AA2FB03235B0D4FF47A72BC
:100C900002FB03F37B61FB685B68B3F5827F12D1D3
:100CA0007B680093BB6800228021F868FFF75AFF39
:100CB0000346002B16D0FB685B6D43F02002FB68F7
:100CC0005A6503230FE07B69002B0AD07B69013B47
:100CD0007B61FB681B689B6803F08003802BF2D06C
:100CE00000E000BF002318461837BD4680BD00BF96
:100CF00000000020819F5E1680B582B000AF786052
:100D00007B68002B01D101233FE07B6893F83D30E5
:100D1000DBB2002B06D17B68002283F83C20786888
:100D200000F037F87B68242283F83D207B681B683D
:100D3000DA687B681B6822F40052DA60786800F099
:100D400033F97B681B681A697B681B6822F4904240
:100D50001A617B681B685A697B681B6822F02A024B
:100D60005A617B681B68DA687B681B6842F4005232
:100D7000DA607B6800221A647B68202283F83D20B9
:100D80007B68202283F83E20002318460837BD46A2
:100D900080BD80B483B000AF786000BF0C37BD4623
:100DA0005DF8047B704780B58AB002AFF860B96027
:100DB0003B601346FB8000237B61FB6893F83D306A
:100DC000DBB2202B7CD1BB68002B02D0FB88002B30
:100DD00001D1012375E0FB6893F83C30012B01D170
:100DE00002236EE0FB68012283F83C20FB680022AE
:100DF0001A64FB68212283F83D2001F059F87861DC
:100E0000FB68FA889A84FB68FA88DA84FB689B6836
:100E1000B3F5805F08D1FB681B69002B04D1002368
:100E2000FB61BB68BB6103E0BB68FB610023BB6186
:100E3000FB68002283F83C202AE03B6800937B6932
:100E400000228021F86800F040F80346002B01D012
:100E5000032336E0FB69002B0BD1BB691B881A46C4
:100E6000FB681B68C2F308025A60BB690233BB61AE
:100E700007E0FB691A78FB681B685A60FB6901335D
:100E8000FB61FB68DB8C9BB2013B9AB2FB68DA84A6
:100E9000FB68DB8C9BB2002BCFD13B6800937B6956
:100EA00000224021F86800F010F80346002B01D022
:100EB000032306E0FB68202283F83D20002300E0A6
:100EC000022318462037BD4680BD80B590B000AFE4
:100ED000F860B9603B601346FB7150E0BB6CB3F146
:100EE000FF3F4CD0BB6C002B07D000F0E1FF024667
:100EF0003B68D31ABA6C9A4241D2FB681B680C3328
:100F0000BB62BB6A53E8003F7B627B6A23F4D07309
:100F1000FB63FB681B680C33FA6B7A633B63396BCA
:100F20007A6B41E80023FB62FB6A002BE5D1FB688A
:100F30001B6814337B617B6953E8003F3B613B696D
:100F400023F00103BB63FB681B681433BA6B3A627E
:100F5000FB61F9693A6A41E80023BB61BB69002B78
:100F6000E5D1FB68202283F83D20FB68202283F82E
:100F70003E20FB68002283F83C2003230FE0FB683F
:100F80001B681A68BB681340BA689A420CBF0123F9
:100F90000023DBB21A46FB799A429FD00023184601
:100FA0004037BD4680BD00002DE9B04FC0B000AF56
:100FB000C7F8F400D7F8F4301B681B6923F44050DD
:100FC000D7F8F430D968D7F8F4301A6840EA01034A
:100FD0001361D7F8F4309A68D7F8F4301B691A43D4
:100FE000D7F8F4305B691A43D7F8F430DB69134360
:100FF000C7F8F830D7F8F4301B68DB6823F41641E3
:1010000021F00C01D7F8F4301A68D7F8F8300B4308
:10101000D360D7F8F4301B685B6923F44070D7F8CD
:10102000F4309969D7F8F4301A6840EA0103536143
:10103000D7F8F4301A688F4B9A4205D0D7F8F430BD
:101040001A688D4B9A4204D101F06EFEC7F8FC007D
:1010500003E001F055FEC7F8FC00D7F8F430DB6977
:10106000B3F5004F40F00C81D7F8FC300022C7F8F0
:10107000E830C7F8EC20D7E93A4522462B469118CC
:10108000B9655B41FB65D7E91623214612EB0108E0
:10109000294643EB01094FF000024FF000034FEAED
:1010A000C90343EA58734FEAC8029046994623465B
:1010B00018EB0303C7F8E0302B4649EB0303C7F8EE
:1010C000E430D7F8F4305B680022C7F8D830C7F8AE
:1010D000DC20D7E936120B46DB183B65134642EBA2
:1010E00003037B65D7E91423D7E93801FFF7C8F874
:1010F00002460B46614BA3FB02235B091C01D7F898
:10110000FC300022C7F8D030C7F8D420D7E93489A2
:1011100042464B469118B9645B41FB64D7E9122300
:10112000414612EB010A494643EB010B4FF0000226
:101130004FF000034FEACB0343EA5A734FEACA0267
:1011400092469B4643461AEB0303C7F8C8304B460A
:101150004BEB0303C7F8CC30D7F8F4305B680022C0
:10116000C7F8C030C7F8C420D7E930120B46DB18E7
:101170003B64134642EB03037B64D7E91023D7E9B2
:101180003201FFF77DF802460B4611463B4BA3FBAD
:1011900001235B09642202FB03F3CB1ADB0003F19A
:1011A0003202364BA3FB02235B095B0003F4F873A6
:1011B0001C44D7F8FC300022C7F8B830C7F8BC2070
:1011C000D7E92E8942464B469118B9635B41FB63D0
:1011D000D7E90E2341465118396349464B417B6399
:1011E0004FF000024FF00003D7E90CAB5946CB009B
:1011F000514643EA51735146CA0010461946034608
:1012000042469B18C7F8B0304B460A4642EB0303F0
:10121000C7F8B430D7F8F4305B680022C7F8A830BC
:10122000C7F8AC20D7E92A120B46DB18BB6213467D
:1012300042EB0303FB62D7E90A23D7E92C01FFF74E
:101240001FF802460B460D4BA3FB02135B096421FA
:1012500001FB03F3D31ADB003233084AA2FB03235A
:101260005B0903F00702D7F8F4301B6822449A6048
:1012700006E100BF00100140001401401F85EB5142
:10128000D7F8FC300022C7F8A030C7F8A420D7E96F
:10129000288942464B46911839625B417B62D7E907
:1012A000082341465418494643EB01054FF000021C
:1012B0004FF00003EB0043EA5473E20014461D466E
:1012C0004346E318C7F898304B4645EB0303C7F88D
:1012D0009C30D7F8F4305B680022C7F89030C7F82C
:1012E00094204FF000024FF00003D7E9244529462F
:1012F0008B00214643EA917321468A00D7E92601F3
:10130000FEF7BEFF02460B46604BA3FB02235B09C0
:101310001C01D7F8FC300022C7F88830C7F88C20B1
:10132000D7E9228942464B469118B9615B41FB617E
:10133000D7E9062341465118396149464B417B6143
:101340004FF000024FF00003D7E904AB5946CB0041
:10135000514643EA51735146CA00104619460346A6
:1013600042469B18C7F880304B460A4642EB0303BF
:10137000C7F88430D7F8F4305B680022BB67FA679F
:101380004FF000024FF00003D7E91E8949468B0059
:10139000414643EA917341468A00D7E92001FEF7AE
:1013A0006FFF02460B461146384BA3FB01235B0936
:1013B000642202FB03F3CB1A1B013233334AA2FB34
:1013C00003235B0903F0F0031C44D7F8FC30002230
:1013D0003B677A67D7E91C8942464B469118B9604A
:1013E0005B41FB60D7E90223414651183960494609
:1013F0004B417B604FF000024FF00003D7E900AB98
:101400005946CB00514643EA51735146CA00104633
:101410001946034642469B18BB664B460A4642EBBA
:101420000303FB66D7F8F4305B6800223B667A66FC
:101430004FF000024FF00003D7E9188949468B00AE
:10144000414643EA917341468A00D7E91A01FEF703
:1014500017FF02460B460D4BA3FB02135B096421E9
:1014600001FB03F3D31A1B013233084AA2FB032307
:101470005B0903F00F02D7F8F4301B6822449A602E
:1014800000BF07F58077BD46BDE8B08F1F85EB51E3
:1014900080B400AFFEE780B400AFFEE780B400AFD9
:1014A000FEE780B400AFFEE780B400AFFEE780B493
:1014B00000AF00BFBD465DF8047B704780B400AF4D
:1014C00000BFBD465DF8047B704780B400AF00BF2D
:1014D000BD465DF8047B704780B500AF00F0D4FCDA
:1014E00000BF80BD80B586B000AF7860144A154B50
:1014F000D31A7B617B693B61134B1B68002B02D1C4
:10150000114B124A1A60104B1A687B6813443A69EF
:101510009A4207D201F044FC03460C221A604FF0B5
:10152000FF3309E0084B1B68FB60074B1A687B68B8
:101530001344054A1360FB6818461837BD4680BD42
:101540000000022000040000780000206823002032
:1015500080B400AF064BD3F88830054A43F47003DB
:10156000C2F8883000BFBD465DF8047B704700BFFD
:1015700000ED00E0DFF834D00D480E490E4A00239C
:1015800002E0D458C4500433C4188C42F9D30B4A37
:101590000B4C002301E013600432A242FBD3FFF79F
:1015A000D7FF01F003FCFEF7E9FF704700000220BF
:1015B000000000205C000020543700085C00002080
:1015C00068230020FEE7000080B588B000AF00234C
:1015D000BB602D4B1B6B2C4A43F0020313632A4B59
:1015E0001B6B03F00203BB60BB6800237B60264BD0
:1015F0001B6B254A43F020031363234B1B6B03F043
:1016000020037B607B6802233B610223BB610223D2
:101610007B610523FB613823FB6007F10C0319464E
:101620001A4800F087FD00224FF48071184800F03E
:101630001DFF01233B610223BB6100237B614FF44B
:101640008073FB6007F10C031946114800F072FD2E
:1016500000F020F800F056F801224FF480710C4899
:1016600000F004FF042000F0FBF800224FF480712A
:10167000074800F0FBFE00F00DF9002000F028F90B
:1016800000BF2037BD4680BD003802400004024044
:101690000014024080B598B000AF00237B60174B68
:1016A0005B6C164A43F480535364144B5B6C03F435
:1016B00080537B607B68124BBB604FF48273FB608E
:1016C00000233B6100237B610223BB610123FB619B
:1016D0004FF400733B6208237B620023BB6200234C
:1016E000FB6200233B6307237B6307F10803184673
:1016F000FFF702F800BF6037BD4680BD00380240EA
:101700000030014090B587B000AF00F079F8034693
:10171000314A1360304B1A683B1D3049184601F0BE
:1017200017FB3B1D184600F03FFB4FF4967000F08E
:10173000CBFB294B1B682A4A934228D0284A934264
:1017400033D8284A934203D0274A93420ED02CE044
:10175000264B274A07CA83E807001F4B4FF40012A5
:101760005A611D4B4FF480521A8330E01F4B214ABF
:1017700007CA03C31A800233120C1A70164B4FF4B7
:1017800000125A61144B4FF480521A831FE0174B1A
:10179000194A07CA03C31A700F4B4FF400025A616B
:1017A0000D4B4FF480521A8311E0104A134B14462C
:1017B0000FCB07C42370114800F0F6FA064B4FF424
:1017C00000125A61044B4FF480521A8300BF00BFCD
:1017D0001C37BD4690BD00BFD4000020B0360008C5
:1017E0001740EF004125BF001520C200D80000209F
:1017F000C4360008D0360008DC360008E836000899
:1018000080B582B000AF01224FF48071134800F020
:101810002DFE9F2000F024F8A52000F021F80346BB
:10182000FB71A52000F01CF80346BB71A52000F059
:1018300017F803467B7100224FF48071074800F0CF
:1018400015FEFB791A04BB791B021A437B791343FB
:101850003B603B6818460837BD4680BD0014024017
:1018600080B586B002AF0346FB710023BB7307F15E
:101870000E02F91D6423009301230548FEF7CFFFF4
:101880000346FB7300BF18461037BD4680BD00BF3E
:101890007C00002080B500AF01224FF480710B481E
:1018A00000F0E4FD0520FFF7DBFF00BFA520FFF7F8
:1018B000D7FF034603F00103012BF7D000224FF4BA
:1018C0008071024800F0D2FD00BF80BD00140240CC
:1018D00080B582B000AF0346FB711F4B1B681F4AE7
:1018E000934222D101224FF480711D4800F0BEFDC9
:1018F0005020FFF7B5FF00224FF48071184800F028
:10190000B5FD01224FF48071154800F0AFFD0120B4
:10191000FFF7A6FFFB791846FFF7A2FF00224FF45E
:1019200080710F4800F0A2FD12E001224FF4807197
:101930000B4800F09BFD0120FFF792FFFB79184652
:10194000FFF78EFF00224FF48071054800F08EFDF6
:1019500000BF0837BD4680BDD40000204125BF0030
:101960000014024080B500AF00F01EF800F0F6F859
:1019700000F0D6F900BF80BD80B500AF0122042180
:10198000024800F073FD00BF80BD00BF00040240AC
:1019900080B500AF00220421024800F067FD00BFBF
:1019A00080BD00BF0004024080B400AF594B5A4ACA
:1019B0001A60584B594A5A60564B594A9A60554BCF
:1019C0004FF480629A81534B4FF48062DA81514B1D
:1019D00000221A824F4B00225A824E4B0022DA829A
:1019E0004C4B00221A834B4B00225A83494B002256
:1019F0009A82484B0022DA61464B00221A62454B1C
:101A000000225A62474B484A1A60464B474A5A607E
:101A1000444B474A9A60434B01229A81414B4FF411
:101A20000062DA813F4B00221A823E4B00225A822A
:101A30003C4B0022DA823B4B00221A83394B0022B6
:101A40005A83384B00229A82364B0022DA61354B9A
:101A500000221A62334B00225A62364B364A1A6011
:101A6000344B364A5A60334B354A9A60314B4FF407
:101A700080629A812F4B4FF48062DA812D4B0022D5
:101A80001A822C4B00225A822A4B0022DA82294BDE
:101A900000221A83274B00225A83264B00229A8267
:101AA000244B284ADA61234B274A1A62214B002231
:101AB0005A62264B264A1A60244B264A5A60234B08
:101AC000254A9A60214B4FF480629A811F4B4FF454
:101AD0008062DA811D4B00221A821C4B00225A823E
:101AE0001A4B0022DA82194B00221A83174B00226C
:101AF0005A83164B00229A82144B0022DA61134B50
:101B000000221A62114B00225A6200BFBD465DF8E6
:101B1000047B7047F00000200010014018010020F5
:101B2000180500201809002000440040400900204A
:101B30004409002044110020004800406C1100209E
:101B40006C15002079190008911900086C19002003
:101B50000014014094190020941D002080B58AB023
:101B600000AF00233B61684B1B6B674A43F00103E6
:101B70001363654B1B6B03F001033B613B6900235F
:101B8000FB60614B5B6C604A43F0100353645E4B37
:101B90005B6C03F01003FB60FB684FF400737B6128
:101BA0000223BB6102233B620023FB6107237B62AC
:101BB00007F114031946554800F0BCFA4FF480634E
:101BC0007B610223BB6102233B620023FB6107238D
:101BD0007B6207F1140319464C4800F0ABFA4C4BFA
:101BE0004C4A1A604A4B4FF4E1325A60484B00228B
:101BF0009A60474B0022DA60454B00221A61444B41
:101C000000229A61424B0C225A614148FFF774F856
:101C10003F4B1B68DA683E4B1B6842F02002DA60DB
:101C20003B4B1B68DA683A4B1B6842F40052DA609F
:101C3000374B1B686FF040021A600023BB60324BC9
:101C40001B6B314A43F0010313632F4B1B6B03F0F3
:101C50000103BB60BB6800237B602B4B1B6C2A4AD3
:101C600043F400331364284B1B6C03F400337B6094
:101C70007B680223BB6102233B620023FB610723D5
:101C80007B6208237B610223BB6102233B6200234A
:101C9000FB6107237B6207F1140319461B4800F020
:101CA00049FA1D4B1D4A1A601B4B4FF416525A60DD
:101CB000194B00229A60184B0022DA60164B002262
:101CC0001A61154B00229A61134B04225A61124883
:101CD000FFF712F8104B1B68DA680F4B1B6842F0D5
:101CE0002002DA600C4B1B68DA680B4B1B6842F46D
:101CF0000052DA60084B1B686FF040021A6000BFA8
:101D00002837BD4680BD00BF0038024000000240B9
:101D10009421002000100140D82100200044004000
:101D200080B500AF072000F0C3F900220021252074
:101D300000F0C9F9252000F0E2F901220021262057
:101D400000F0C1F9262000F0DAF902220021272054
:101D500000F0B9F9272000F0D2F905220021472030
:101D600000F0B1F9472000F0CAF900BF80BD0000C3
:101D700080B584B000AF78600B467B807A884FF4E2
:101D80007A7379680748FFF70EF80346FB73054B33
:101D90001B686FF040021A60FB7B18461037BD4687
:101DA00080BD00BF9421002080B582B000AF786074
:101DB0007868FEF70DFA03469BB219467868FFF77C
:101DC000D7FF034618460837BD4680BD80B500AF33
:101DD000FFF7C8FDFFF7F8FB142000F075F800BF0F
:101DE00080BD000080B500AF0E4B1B680D4A43F468
:101DF000007313600B4B1B680A4A43F48063136043
:101E0000084B1B68074A43F480731360032000F0FB
:101E10004FF90F2000F008F8FEF746FC00231846A3
:101E200080BD00BF003C024080B582B000AF78604A
:101E3000124B1A68124B1B7819464FF47A73B3FB96
:101E4000F1F3B2FBF3F3184600F067F90346002BF9
:101E500001D001230EE07B680F2B0AD8002279689D
:101E60004FF0FF3000F02FF9064A7B681360002323
:101E700000E0012318460837BD4680BD0000002061
:101E8000080000200400002080B400AF064B1B783F
:101E90001A46064B1B681344044A136000BFBD4634
:101EA0005DF8047B704700BF080000201C22002062
:101EB00080B400AF034B1B681846BD465DF8047B39
:101EC000704700BF1C22002080B584B000AF78604E
:101ED000FFF7EEFFB8607B68FB60FB68B3F1FF3F84
:101EE00005D00A4B1B781A46FB681344FB6000BF01
:101EF000FFF7DEFF0246BB68D31AFA689A42F7D8AA
:101F000000BF00BF1037BD4680BD00BF08000020E5
:101F100080B485B000AF78607B6803F00703FB6096
:101F20000C4BDB68BB60BA684FF6FF031340BB6025
:101F3000FB681A02BB68134343F0BF6343F40033EA
:101F4000BB60044ABB68D36000BF1437BD465DF870
:101F5000047B704700ED00E080B400AF044BDB6809
:101F60001B0A03F007031846BD465DF8047B704763
:101F700000ED00E080B483B000AF0346FB7197F939
:101F80000730002B0BDBFB7903F01F02074997F9A1
:101F900007305B09012000FA02F241F8232000BF5C
:101FA0000C37BD465DF8047B704700BF00E100E0E0
:101FB00080B483B000AF03463960FB7197F90730F6
:101FC000002B0ADB3B68DAB20C4997F907301201A3
:101FD000D2B20B4483F800230AE03B68DAB2084926
:101FE000FB7903F00F03043B1201D2B20B441A76C3
:101FF00000BF0C37BD465DF8047B704700E100E090
:1020000000ED00E080B489B000AFF860B9607A609C
:10201000FB6803F00703FB61FB69C3F10703042BB3
:1020200028BF0423BB61FB690433062B02D9FB697B
:10203000033B00E000237B614FF0FF32BB6902FAF3
:1020400003F3DA43BB681A407B699A404FF0FF31D3
:102050007B6901FA03F3D9437B680B4013431846AD
:102060002437BD465DF8047B7047000080B582B020
:1020700000AF78607B68013BB3F1807F01D301231F
:102080000FE00A4A7B68013B53600F214FF0FF309D
:10209000FFF78EFF054B00229A60044B07221A605F
:1020A000002318460837BD4680BD00BF10E000E0A1
:1020B00080B582B000AF78607868FFF729FF00BF75
:1020C0000837BD4680BD80B586B000AF0346B96015
:1020D0007A60FB7300237B61FFF73EFF78617A68CB
:1020E000B9687869FFF78EFF024697F90F301146FD
:1020F0001846FFF75DFF00BF1837BD4680BD80B5AD
:1021000082B000AF0346FB7197F907301846FFF71E
:1021100031FF00BF0837BD4680BD80B582B000AF3B
:1021200078607868FFF7A2FF034618460837BD4677
:1021300080BD000080B489B000AF786039600023B2
:102140007B6100233B610023BB610023FB616BE1EA
:102150000122FB6902FA03F37B613B681B687A6921
:1021600013403B613A697B699A4240F05A813B686F
:102170005B6803F00303012B05D03B685B6803F049
:102180000303022B30D17B689B68BB61FB695B005A
:10219000032202FA03F3DB43BA691340BB613B68D5
:1021A000DA68FB695B0002FA03F3BA691343BB61A7
:1021B0007B68BA699A607B685B68BB610122FB69D6
:1021C00002FA03F3DB43BA691340BB613B685B6807
:1021D0001B0903F00102FB6902FA03F3BA69134316
:1021E000BB617B68BA695A603B685B6803F00303B4
:1021F000032B17D07B68DB68BB61FB695B000322A4
:1022000002FA03F3DB43BA691340BB613B689A6887
:10221000FB695B0002FA03F3BA691343BB617B6895
:10222000BA69DA603B685B6803F00303022B23D1D1
:10223000FB69DA087B68083253F82230BB61FB691E
:1022400003F007039B000F2202FA03F3DB43BA6992
:102250001340BB613B681A69FB6903F007039B00ED
:1022600002FA03F3BA691343BB61FB69DA087B68BE
:102270000832B96943F822107B681B68BB61FB69AF
:102280005B00032202FA03F3DB43BA691340BB612C
:102290003B685B6803F00302FB695B0002FA03F32F
:1022A000BA691343BB617B68BA691A603B685B68B3
:1022B00003F44033002B00F0B4800023FB60604B3C
:1022C0005B6C5F4A43F4804353645D4B5B6C03F487
:1022D0008043FB60FB685B4AFB699B08023352F852
:1022E0002330BB61FB6903F003039B000F2202FA5A
:1022F00003F3DB43BA691340BB617B68524A9342E4
:102300002BD07B68514A934225D07B68504A934238
:102310001FD07B684F4A934219D07B684E4A934244
:1023200013D07B684D4A93420DD07B684C4A934250
:1023300007D07B684B4A934201D107230EE0082364
:102340000CE006230AE0052308E0042306E003234B
:1023500004E0022302E0012300E00023FA6902F016
:10236000030292009340BA691343BB613549FB698C
:102370009B080233BA6941F823203B4B9B68BB6141
:102380003B69DB43BA691340BB613B685B6803F49C
:102390008013002B03D0BA693B691343BB61324AF7
:1023A000BB699360304BDB68BB613B69DB43BA6957
:1023B0001340BB613B685B6803F40013002B03D040
:1023C000BA693B691343BB61274ABB69D360264B9B
:1023D0005B68BB613B69DB43BA691340BB613B6827
:1023E0005B6803F40033002B03D0BA693B691343E5
:1023F000BB611D4ABB6953601B4B1B68BB613B69DA
:10240000DB43BA691340BB613B685B6803F480330C
:10241000002B03D0BA693B691343BB61124ABB6905
:102420001360FB690133FB61FB690F2B7FF690AEF4
:1024300000BF00BF2437BD465DF8047B704700BF76
:102440000038024000380140000002400004024011
:1024500000080240000C024000100240001402403C
:1024600000180240001C0240003C014080B483B0D0
:1024700000AF78600B467B8013467B707B78002B27
:1024800003D07A887B689A6103E07B881A047B68B2
:102490009A6100BF0C37BD465DF8047B70470000B1
:1024A00080B586B000AF78607B68002B01D1012336
:1024B00067E27B681B6803F00103002B75D0884B33
:1024C0009B6803F00C03042B0CD0854B9B6803F036
:1024D0000C03082B12D1824B5B6803F48003B3F525
:1024E000800F0BD17E4B1B6803F40033002B5BD0B5
:1024F0007B685B68002B57D1012342E27B685B68F5
:10250000B3F5803F06D1764B1B68754A43F48033A0
:1025100013601DE07B685B68B3F5A02F0CD1704B96
:102520001B686F4A43F4802313606D4B1B686C4A31
:1025300043F4803313600BE0694B1B68684A23F453
:1025400080331360664B1B68654A23F48023136055
:102550007B685B68002B13D0FFF7AAFC386108E0AA
:10256000FFF7A6FC02463B69D31A642B01D903236B
:1025700007E25B4B1B6803F40033002BF0D014E040
:10258000FFF796FC386108E0FFF792FC02463B69D2
:10259000D31A642B01D90323F3E1514B1B6803F4D5
:1025A0000033002BF0D100E000BF7B681B6803F014
:1025B0000203002B63D04A4B9B6803F00C03002BF3
:1025C0000BD0474B9B6803F00C03082B1CD1444BEA
:1025D0005B6803F48003002B16D1414B1B6803F0AA
:1025E0000203002B05D07B68DB68012B01D001239F
:1025F000C7E13B4B1B6823F0F8027B681B69DB00DB
:10260000374913430B603AE07B68DB68002B20D02E
:10261000344B01221A60FFF74BFC386108E0FFF7EA
:1026200047FC02463B69D31A022B01D90323A8E1D8
:102630002B4B1B6803F00203002BF0D0284B1B68C8
:1026400023F0F8027B681B69DB00254913430B600C
:1026500015E0244B00221A60FFF72AFC386108E0DD
:10266000FFF726FC02463B69D31A022B01D903234C
:1026700087E11B4B1B6803F00203002BF0D17B6842
:102680001B6803F00803002B36D07B685B69002BC6
:1026900016D0154B01221A60FFF70AFC386108E0DA
:1026A000FFF706FC02463B69D31A022B01D903232C
:1026B00067E10B4B5B6F03F00203002BF0D01BE0D4
:1026C000094B00221A60FFF7F3FB38610EE0FFF7B9
:1026D000EFFB02463B69D31A022B07D9032350E1D3
:1026E0000038024000004742800E4742884B5B6F33
:1026F00003F00203002BEAD17B681B6803F004039C
:10270000002B00F097800023FB75814B1B6C03F0BE
:102710008053002B0FD10023BB607D4B1B6C7C4A88
:1027200043F0805313647A4B1B6C03F08053BB60FF
:10273000BB680123FB75774B1B6803F48073002B88
:1027400018D1744B1B68734A43F480731360FFF70E
:10275000AFFB386108E0FFF7ABFB02463B69D31AD9
:10276000022B01D903230CE16A4B1B6803F480732D
:10277000002BF0D07B689B68012B06D1644B1B6F4C
:10278000634A43F0010313671CE07B689B68052BD9
:102790000CD15F4B1B6F5E4A43F0040313675C4B25
:1027A0001B6F5B4A43F0010313670BE0584B1B6F31
:1027B000574A23F001031367554B1B6F544A23F00C
:1027C000040313677B689B68002B15D0FFF770FB31
:1027D00038610AE0FFF76CFB02463B69D31A41F20D
:1027E0008832934201D90323CBE0494B1B6F03F09E
:1027F0000203002BEED014E0FFF75AFB38610AE029
:10280000FFF756FB02463B69D31A41F288329342E6
:1028100001D90323B5E03E4B1B6F03F00203002BED
:10282000EED1FB7D012B05D1394B1B6C384A23F0CF
:10283000805313647B689B69002B00F0A180344BAC
:102840009B6803F00C03082B5CD07B689B69022B10
:1028500041D1314B00221A60FFF72AFB386108E0B2
:10286000FFF726FB02463B69D31A022B01D903234B
:1028700087E0274B1B6803F00073002BF0D17B68C7
:10288000DA697B681B6A1A437B685B6A9B011A439F
:102890007B689B6A5B08013B1B041A437B68DB6A0D
:1028A0001B061B4913434B601B4B01221A60FFF7A9
:1028B000FFFA386108E0FFF7FBFA02463B69D31ADA
:1028C000022B01D903235CE0114B1B6803F000735A
:1028D000002BF0D054E0104B00221A60FFF7E8FA0A
:1028E000386108E0FFF7E4FA02463B69D31A022B8D
:1028F00001D9032345E0064B1B6803F00073002B4E
:10290000F0D13DE07B689B69012B07D1012338E0C2
:102910000038024000700040600047421B4B5B687B
:10292000FB607B689B69012B28D0FB6803F4800265
:102930007B68DB699A4221D1FB6803F03F027B6828
:102940001B6A9A421AD1FA6847F6C07313407A6834
:10295000526A9201934211D1FB6803F440327B68C2
:102960009B6A5B08013B1B049A4207D1FB6803F09A
:1029700070627B68DB6A1B069A4201D0012300E08B
:10298000002318461837BD4680BD00BF00380240FE
:1029900080B584B000AF786039607B68002B01D1CE
:1029A0000123CCE0684B1B6803F007033A689A42A6
:1029B0000CD9654B3A68D2B21A70634B1B6803F0AE
:1029C00007033A689A4201D00123B8E07B681B688C
:1029D00003F00203002B20D07B681B6803F0040384
:1029E000002B05D0594B9B68584A43F4E053936041
:1029F0007B681B6803F00803002B05D0534B9B68D2
:102A0000524A43F460439360504B9B6823F0F002BA
:102A10007B689B684D4913438B607B681B6803F0A0
:102A20000103002B44D07B685B68012B07D1474B27
:102A30001B6803F40033002B19D101237FE07B686E
:102A40005B68022B03D07B685B68032B07D13F4B8D
:102A50001B6803F00073002B09D101236FE03B4B8F
:102A60001B6803F00203002B01D1012367E0374B01
:102A70009B6823F003027B685B68344913438B60D7
:102A8000FFF716FAF8600AE0FFF712FA0246FB6851
:102A9000D31A41F28832934201D903234FE02B4BE2
:102AA0009B6803F00C027B685B689B009A42EBD149
:102AB000254B1B6803F007033A689A420CD2224B5D
:102AC0003A68D2B21A70204B1B6803F007033A68C9
:102AD0009A4201D0012332E07B681B6803F00403B3
:102AE000002B08D0194B9B6823F4E0527B68DB680D
:102AF000164913438B607B681B6803F00803002BA7
:102B000009D0124B9B6823F460427B681B69DB0091
:102B10000E4913438B6000F021F802460B4B9B6873
:102B20001B0903F00F030A49CB5C22FA03F3094A9D
:102B30001360094B1B681846FFF776F90023184607
:102B40001037BD4680BD00BF003C02400038024047
:102B5000F836000800000020040000202DE9B04FE6
:102B600090B000AF00237B630023FB6300233B6333
:102B70000023BB63594B9B6803F00C03082B0DD05B
:102B8000082B00F2A180002B02D0042B03D09BE085
:102B9000534BBB639BE0534BBB6398E04F4B5B686D
:102BA00003F03F037B634D4B5B6803F48003002B12
:102BB00028D04A4B5B689B0900223B627A623B6AE1
:102BC000C3F308000021474B03FB01F2002300FB85
:102BD00003F31344434AA0FB0212FA620A46BA62A4
:102BE000FA6A1344FB627B6B0022BB61FA61D7E98E
:102BF0000623D7E90A01FDF743FB02460B461346BD
:102C0000FB6353E0354B5B689B0900223B617A61B3
:102C10003B69C3F3080A4FF0000B52465B464FF086
:102C200000004FF00001590141EAD2615001024613
:102C30000B46B2EB0A0863EB0B094FF000024FF0B2
:102C400000034FEA891343EA98634FEA8812B2EB14
:102C5000080463EB09054FF000024FF00003EB009E
:102C600043EA5473E20014461D4614EB0A033B602A
:102C700045EB0B037B604FF000024FF00003D7E9F8
:102C8000004529468B02214643EA915321468A0298
:102C9000104619467B6B0022BB60FA60D7E902231D
:102CA000FDF7EEFA02460B461346FB630B4B5B68DF
:102CB0001B0C03F0030301335B003B63FA6B3B6BBC
:102CC000B2FBF3F3BB6302E0054BBB6300BFBB6B1E
:102CD00018464037BD46BDE8B08F00BF00380240FF
:102CE0000024F40040787D0180B400AF034B1B68E2
:102CF0001846BD465DF8047B704700BF0000002009
:102D000080B500AFFFF7F0FF0246054B9B689B0ABA
:102D100003F007030349CB5C22FA03F3184680BD96
:102D2000003802400837000880B500AFFFF7DCFF2D
:102D30000246054B9B685B0B03F007030349CB5C22
:102D400022FA03F3184680BD003802400837000815
:102D50000EB400B59CB01DAB029006906FF0004120
:102D6000094807910491094953F8042B059100681B
:102D7000019302A900F0A0F9029B00221A701CB076
:102D80005DF804EB03B07047580000200802FFFF15
:102D900002440346934200D1704703F8011BF9E750
:102DA000014B1868704700BF5800002070B50D4DEA
:102DB0000D4C641BA4100026A64209D10B4D0C4CEF
:102DC00000F06AFC641BA4100026A64205D170BD69
:102DD00055F8043B98470136EEE755F8043B984711
:102DE0000136F2E74C3700084C3700084C37000832
:102DF00050370008704770470A44914200F1FF3392
:102E000000D1704710B511F8014B03F8014F914202
:102E1000F9D110BD37B5002944D051F8043C0190D8
:102E2000002BA1F10404B8BFE41800F0DFF81E4A3B
:102E30000198136833B96360146003B0BDE8304093
:102E400000F0DAB8A34208D9256861198B4201BFA6
:102E500019685B6849192160EDE71A465B680BB198
:102E6000A342FAD911685518A5420BD12468214410
:102E70005418A3421160E0D11C685B6853600C4495
:102E80001460DAE702D90C230360D6E725686119DC
:102E90008B4204BF19685B68636004BF49192160F5
:102EA0005460CAE703B030BD6023002070B50E4EF9
:102EB0000C463168054611B900F0A6FB306021468A
:102EC000284600F0A1FB431C0AD0C41C24F00304D4
:102ED000A04207D0211A284600F096FB013001D10C
:102EE0004FF0FF34204670BD642300202DE9F843E5
:102EF000CD1C25F0030508350C2D38BF0C25002D01
:102F0000074601DBA94205D90C233B600026304669
:102F1000BDE8F883DFF8D08000F068F8D8F800301A
:102F20001C465CBB29463846FFF7C0FF431C0446DD
:102F300055D1D8F800402646002E45D1002C48D067
:102F400023683146384604EB030900F05DFB8145F8
:102F50003FD121686D1A29463846FFF7A7FF013097
:102F600037D023682B442360D8F80030002B38D0AA
:102F70005A68A2422BD100225A600FE02268521BED
:102F80001FD40B2A17D96119A342256018BF5960B5
:102F9000636808BFC8F8001062514B60384604F1FE
:102FA0000B0600F029F826F00706231DF21AAED012
:102FB0009B1BA350ABE7A3426268DDD1C8F8002099
:102FC000ECE723466468ACE734467668B4E713461A
:102FD000CCE70C233B60384600F00EF897E72560FD
:102FE000DCE75B60FFDE00BF602300200148FFF7E5
:102FF00001BF00BF5C2300200148FFF7FCBE00BFFB
:103000005C2300202DE9F0478E681F46BE420B6806
:1030100082460C4690462CD88A8912F4906F26D0AE
:103020006569096905EB4505A3EB010905EBD57554
:103030007B1C4B446D109D4238BF1D46530527D560
:103040002946FFF753FF064660B321694A46FFF75A
:10305000D3FEA38923F4906343F08003A381266108
:1030600065614E44A5EB09052660A5603E46BE425B
:1030700000D93E4620683246414600F0ABFAA368CC
:103080009B1BA3602368334423600020BDE8F087C6
:103090002A4600F0C9FA06460028E0D121695046C8
:1030A000FFF7B8FE0C23CAF80030A38943F04003B1
:1030B000A3814FF0FF30E9E72DE9F04F98468B8967
:1030C0001B069DB007460D4614460ED50B6963B925
:1030D0004021FFF70BFF2860286120B90C233B60DB
:1030E0004FF0FF30D0E040236B6100230993202391
:1030F0008DF82930CDF80C803023DFF8A4818DF8CD
:103100002A304FF0010923469A4613F8012B0AB1E1
:10311000252AF9D1BAEB040B0BD05B46224629468F
:103120003846FFF76FFF013000F0A980099A5A4432
:1031300009929AF80030002B00F0A18000234FF094
:10314000FF32CDE905230AF1010A049307938DF8B4
:1031500053301A935446052214F8011B5048FDF7CA
:103160003FF8049AD8B9D00644BF20238DF85330D5
:10317000110744BF2B238DF853309AF800302A2BC7
:1031800015D0079A544600204FF00A0C214611F83A
:10319000013B303B092B4DD9B0B1079214E0A0EBB5
:1031A000080309FA03F313430493A246D2E7039BEF
:1031B000191D1B680391002BBBBF5B4242F002024A
:1031C00007930793B8BF049223782E2B0CD1637812
:1031D0002A2B34D1039B1A1D1B680392002BB8BF06
:1031E0004FF0FF3302340593DFF8C4A021780322A7
:1031F0005046FCF7F5FF38B1049BA0EB0A004022D3
:10320000824013430134049314F8011B25488DF8C0
:1032100028100622FCF7E4FF002838D0224B1BBB05
:10322000039B073323F0070308330393099B3344BD
:10323000099368E70CFB02320C460120A6E7002345
:103240000134059319464FF00A0C204610F8012B63
:10325000303A092A03D9002BC6D00591C4E70CFBEC
:10326000012104460123F0E703AB00932A460F4BEC
:1032700004A93846AFF30080421C0646D6D1AB897C
:103280005B063FF52DAF09981DB0BDE8F08F03AB8D
:1032900000932A46054B04A9384600F079F8EBE77D
:1032A000103700081A370008000000000530000839
:1032B000163700082DE9F047164699468A680B69CB
:1032C000DDF820809342B8BF1346336091F8432065
:1032D00007460C460AB1013333602368990642BFA2
:1032E000336802333360256815F0060506D104F112
:1032F000190AE36832689B1AAB4226DC94F8432033
:10330000131E226818BF012392062BD404F1430236
:1033100049463846C04701301ED02368226903F071
:103320000603042B02BFE5683368ED1AA3680CBFDF
:1033300025EAE57500259342C4BF9B1AED180026C7
:103340001A34B5421AD1002008E0012352464946FA
:103350003846C047013003D14FF0FF30BDE8F08759
:103360000135C6E7E1185A1C302081F84300224499
:1033700094F8451082F843100233C7E70123224630
:1033800049463846C0470130E6D00136D9E700004B
:103390002DE9FF470F7E0C9D782F914680460C4605
:1033A0009A4601F1430207D8622F0AD8002F00F095
:1033B000D480582F00F0C08004F1420584F8427098
:1033C0003AE0A7F16303152BF6D801A151F823F0D9
:1033D000293400083D340008B9330008B933000827
:1033E000B9330008B93300083D340008B933000888
:1033F000B9330008B9330008B93300084135000873
:1034000069340008FB340008B9330008B9330008F8
:1034100063350008B933000869340008B93300087F
:10342000B9330008033500082B681A1D1B682A6091
:1034300004F1420584F8423001239FE020682B68A4
:10344000070603F10401296001D51E6803E0460662
:10345000FBD5B3F90060002E03DA2D23764284F801
:1034600043305A480A2312E02B682068191D29604E
:10347000050601D51E6802E04106FBD51E885348AB
:103480006F2F0CBF08230A23002184F843106568BE
:10349000A560002DA2BF216821F0040121600EB9B2
:1034A000002D4BD01546B6FBF3F103FB1167C75D4A
:1034B00005F8017D3746BB420E46F4D9082B0BD1E7
:1034C0002368DE0708D5236961689942DEBF30238F
:1034D00005F8013C05F1FF35521B2261CDF800A033
:1034E0004B4603AA21464046FFF7E4FE01304AD18D
:1034F0004FF0FF3004B0BDE8F087236843F02003AD
:1035000023603348782784F84570236829681F06AC
:1035100051F8046B02D45F0648BFB6B2DF0748BF5C
:1035200043F02003296048BF23601EB9236823F0BD
:10353000200323601023A7E72448E4E71546BDE7EE
:103540002B6826686169181D286035061B6801D53F
:10355000196002E07006FBD519800023236115462F
:10356000BCE72B681A1D2A601D6862680021284686
:10357000FCF736FE08B1401B6060636823610023DE
:1035800084F84330AAE723692A4649464046D04793
:103590000130ADD023689B0713D4E068039B9842A9
:1035A000B8BF1846A6E70123324649464046D047F1
:1035B00001309DD00135E36803995B1AAB42F2DC20
:1035C000EBE7002504F11906F5E700BF21370008F5
:1035D00032370008884210B501EB020402D9844258
:1035E000234607D8431EA14208D011F8012B03F847
:1035F000012FF8E7024401468A4200D110BD13F8BA
:10360000014D02F8014DF7E738B5064D0023044699
:1036100008462B60FDF766FF431C02D12B6803B1FF
:10362000236038BD582300202DE9F0418046144620
:103630000E4621B9BDE8F0411146FFF757BC2AB943
:10364000FFF7E8FB25462846BDE8F08100F01BF8AF
:103650008442074602D8B4EB500F12D821464046A8
:10366000FFF744FC05460028EDD0BC422246314617
:1036700028BF3A46FFF7C0FB31464046FFF7CAFB7A
:10368000E1E73546DFE751F8043C181F002BBCBFCB
:103690000B58C01870470000F8B500BFF8BC08BC54
:1036A0009E467047F8B500BFF8BC08BC9E46704700
:1036B0004368697049443A2030782530386C580D99
:1036C0000A0000005353543235564630313642001A
:1036D0004D5832354C313630364500005732355171
:1036E0003634425600000000556E6B6E6F772046F0
:1036F0006C61736800000000000000000000000022
:103700000102030406070809000000000102030487
:10371000232D302B2000686C4C00656667454647BA
:10372000003031323334353637383941424344453D
:1037300046003031323334353637383961626364AC
:0437400065660000BA
:083744006CCBFF7F01000000C7
:04374C00B5010008BB
:0437500091010008DB
:10375400007A030A100000000100000000000000CD
:103764002022002088220020F022002000000000F7
:103774000000000000000000000000000000000045
:103784000000000000000000000000000000000035
:103794000000000000000000000000000000000025
:0C37A40000000000000000000C000020ED
:040000050800157565
:00000001FF
